S01A00005A33436F6E7461637453656E736F72763635342E733337F2
S31500000000E01A002025A10200518F0000558F000044
S31500000010A70A02020002000004180FAC4065A40102
S3150000002000000000000000000000000000000000CA
S3150000003000000000E42E03000000000000000000A5
S315000000400000000000000000FFFFFFFFFFFFFFFFB2
S31500000050FFFFFFFFFFFFFFFFFFFFFFFFFFFFFFFFAA
S3150000006000E00F000000000000001000FFFFFFFF8F
S31500000070FFFFFFFF1C000000000000000000000062
S31500000080704D00207041002070410020704100201A
S31500000090E01A00206C6403006CD502008011002079
S311000000A05C11002000001000704D0020D4
S31500000200E01A002025A10200518F0000558F000042
S315000002105D8F0000598F0000618F000021A1020050
S3150000022021A1020021A1020021A1020021A10200B8
S31500000230658F000021A1020021A1020021A1020078
S31500000240EDA800005D80010051920000D88F0000EB
S31500000250217B0100C98001006980010081800100C5
S315000002606180010021A00000F5A0000011BF000080
S31500000270E9130100D88F0000D88F0000157D00001B
S31500000280D88F0000D88F000019A10000D88F000079
S31500000290D88F0000D88F0000D88F0000D88F0000BC
S315000002A0D88F0000D88F0000D88F0000D88F0000AC
S315000002B0CD8001006580010071A600000D8101005E
S315000002C0D88F0000353C0100D88F0000D88F000081
S315000002D0D88F0000D88F0000D88F0000D88F00007C
S315000002E0D88F0000D88F0000D88F0000D88F00006C
S315000002F0D88F0000D88F0000D88F0000D88F00005C
S31100000300D88F0000D88F000021A1020059
S3150000030CF8B500BFF8BC08BC9E467047F8B500BFF0
S3150000031CF8BC08BC9E46704710B5054C237833B91B
S3150000032C044B13B10448AFF300800123237010BDB6
S3150000033C0421002000000000405E030008B5034BBA
S3150000034C1BB103490348AFF3008008BD0000000051
S3150000035C08210020405E0300154B002B08BF134BF1
S3150000036C9D46A3F5803A00218B460F461348144A46
S3150000037C121A2DF0E2F80F4B002B00D098470E4BBB
S3150000038C002B00D098470020002104000D000D48DA
S3150000039C002802D00C48AFF300802DF09FF8200007
S315000003AC290011F0BBFA2DF085F800BF00000800FB
S315000003BCE01A0020000000000000000004210020CC
S315000003CC704100200000000000000000F0B5254B35
S315000003DC254E85B000241C7000F0AAFF02280746A3
S315000003EC27D102F01BFF31780125062905710FD1A3
S315000003FC1E4B3A46284602F077FE02F0AFFE1C4A28
S3150000040C1C490346012005B0BDE8F04004F08CBB46
S3150000041C0729F2D104F0D4FE1423C0B20193009044
S3150000042CCDE90244144B22460821284602F05CFE14
S3150000043CE3E73378072B10D111F08EFD0F4A0090AD
S3150000044C0F4B1049012004F06FFB0F481BF0A4FF63
S3150000045C0E4B01221A7005B0F0BD0FF093FB0C4A3F
S3150000046CEDE700BF3C2F002021210020FCFB020001
S3150000047CBFD70200DA3303001BF90200B0D7020023
S3150000048CDAF40200D0D70200442F002020210020ED
S3150000049CBAD7020038B50F4B0F4C1B7800252570C8
S315000004AC93B100F045FF022809D0284608F0D0FD8C
S315000004BC20464FF47A61BDE838401BF079BF002026
S315000004CCBDE8384008F0A0BD00F032FF0228F6D097
S315000004DC38BD00BF20210020442F002010B5074B4B
S315000004EC002201201A700EF037F8054A054903461A
S315000004FCBDE81040012004F017BB00BF342F0020CC
S3150000050CDAF40200EDD70200912808B504D10020D8
S3150000051C08F08CFD002008BD9028FBD1002008F0C7
S3150000052C73FDF7E721B9034B187003481BF034BF72
S3150000053C704700BF212100203C2F002013B50B4B28
S3150000054C009004460A4A0B49012004F0EDFA24B146
S3150000055C094B00221A7002B010BD084840F6B8319B
S3150000056C02B0BDE810401BF023BF00BFE4D7020069
S3150000057CBAD70200D0D7020020210020342F002049
S3150000058C07B500230093074A074B0849012004F0DE
S3150000059CCBFA074840F6B83103B05DF804EB1BF014
S315000005AC07BF00BFB0D70200E4D70200D0D70200C5
S315000005BC342F002007B501200090054B054A06494B
S315000005CC04F0B2FA054B00221A7003B05DF804FB76
S315000005DCE4D70200B0D70200D0D7020020210020B9
S315000005EC08B5054A05490346012004F09DFA044B5B
S315000005FC00221A7008BD00BFE4D70200EDD7020036
S3150000060C2021002008B5012003F052FE044B0022E5
S3150000061C1A7001200FF068FCBDE8084003F037BEE5
S3150000062C782F002008B5002003F02AFE044B002288
S3150000063C1A700DF077FABDE8084003F028BE00BF2B
S3150000064C4C2F002008B5002003F01AFE044B0022A4
S3150000065C1A700DF0B1FDBDE8084003F018BE00BFDE
S3150000066C5C2F002008B5022003F022FE044B00226A
S3150000067C1A7202200FF038FCBDE8084003F007BEE2
S3150000068C782F002008B5012003F012FE044B00223F
S3150000069C1A7001200EF0F4FABDE8084003F0F7BD1D
S315000006AC6C2F002008B5012003F002FE044B00223B
S315000006BC1A7001200FF0D2FBBDE8084003F0E7BD2D
S315000006CC542F002008B5022003F0F2FD044B002243
S315000006DC1A7002200EF0D4FABDE8084003F0D7BD1C
S315000006EC642F002008B501201BF082FF02481BF086
S315000006FCF5FE024B187008BD10D80200742F0020AE
S3150000070C08B503F0E5FB012805D0034B1878BDE8C6
S3150000071C08401BF0C7BE08BD742F002010B50C1E78
S3150000072C03D11BF039FE002010BD02DB1BF040FE8E
S3150000073CF9E70220F8E7B1F5000F02D20902FFF73C
S3150000074CEDBF0220704700002DE9F0419846154B8D
S3150000075C154F1B8800264FF00C0CF4B29C4202D3AA
S3150000076C0220BDE8F0810CFB04F57C197D5D854209
S3150000077C05D165888D4202D12579954201D0013685
S3150000078CEBE701F0D1FA0028EAD04146A068FFF762
S3150000079CC5FF0028E4D19DF8183063719DF81C3014
S315000007ACA371DEE70C1B0020E81A002013B59DF898
S315000007BC1040CDE9003413460022FFF7C5FF02B006
S315000007CC10BD07B500230093FFF7F0FF03B05DF8EB
S315000007DC04FB00000E4BF0B51F880E4E00254FF0A3
S315000007EC0C0CEBB2BB4201D30220F0BD0CFB03F3A5
S315000007FCF418F35C834205D163888B4202D12379CA
S3150000080C934201D00135ECE7A36800201870ECE7A1
S3150000081C0C1B0020E81A00200022FFF7DBBF0000AB
S3150000082C2DE9F04F1E4693B0FF23022E80468946D3
S3150000083C14461C9D9DF874A08DF81E3040F2BA80AB
S3150000084C2B785A072BD5042E40F2B48095F804B0B9
S3150000085C5D4A002302EBC301DFB20979FF2907D0F9
S3150000086C01330A2BF6D1209B002B40F0A780FF27E3
S3150000087C002308AA0DF11F0120798DF81F3002F014
S3150000088CC1F978B1BDF82C3023809DF81F0003F018
S3150000089CF7FC8DF81D00C8B113B0BDE8F08F95F8C4
S315000008AC02B0D5E7207901F05BFAFF28059000F03D
S315000008BC8380207903F0FCFC8DF81D000028EBD119
S315000008CC059B424800EB03104388238061882388EC
S315000008DC4FF6FF72B8F1000F08BF4A46CDE9001279
S315000008EC58465246002105F04DFC18B1E38843F0FA
S315000008FC2003E380209B0F950DF11D010DA8CDE97A
S3150000090C0D34ADF84090ADF842608DF844808DF80A
S3150000091C45A002F0BCF910B19DF81D00BCE72846B5
S3150000092C05F04EFBA01D05F039FB22464946404614
S3150000093C05F04AFD80B2B0422CD39DF87C3003936F
S3150000094CBDF8783002930DF11E03CDE90053224613
S3150000095CF3B24946404600F078FE8DF81D00209A09
S3150000096C9DF81D30D2B15BBB9DF81E20FF2A08D026
S3150000097C092F06D8144B03EBC7010A71209A43F8CA
S3150000098C37209DF81D3013B911200DF03FFA03F0F6
S3150000099C7EFCC1E774238DF81D30E0E7BA2BF0D14D
S315000009ACE388DB06EDD5002301208DF81D3003F01E
S315000009BC95FAE6E701206FE7A3206DE7B4206BE715
S315000009CCBA2BEDD0E3E700BF242100204C300020E9
S315000009DC0023054A10B51946FF24D0180471995006
S315000009EC0833502BF9D110BD2421002010B586B048
S315000009FC0881089C04940024CDE902440124CDE925
S31500000A0C003413460A4601460320FFF709FF06B0D9
S31500000A1C10BD13B500240094FFF7E8FF02B010BD1B
S31500000A2C2DE9FF410F469046054688B381B37AB34C
S31500000A3C00266946F0B229F06BF8044630B99DF8E9
S31500000A4C0030032B06D001360A2EF2D1204604B014
S31500000A5CBDE8F0819DF801202B799A42F3D1BDF8BF
S31500000A6C02206B889A42EED19DF806309DF805005F
S31500000A7C00EB032080B29DF804306B71288143464D
S31500000A8C3A462946FFF7C5FF0028DCD00446DDE7C9
S31500000A9C0224DBE710B586B0089C04940024CDE94B
S31500000AAC02440124CDE9003413460A4601460620C9
S31500000ABCFFF7B6FE06B010BD13B500240094FFF781
S31500000ACCE9FF02B010BDF0B502288BB005460E4604
S31500000ADC14461F460AD106A9F0B229F019F898B99E
S31500000AEC9DF8193023719DF81C306371119B04938A
S31500000AFC0022109B0192CDE90222009322463B462E
S31500000B0C31462846FFF78CFE0BB0F0BD13B500241A
S31500000B1C0194049C0094FFF7D6FF02B010BD2DE99A
S31500000B2CF04306468BB00F4690469946002506A91B
S31500000B3CE8B228F0EDFF044630B99DF81830012BC9
S31500000B4C06D001350A2DF2D120460BB0BDE8F08354
S31500000B5C9DF8192033799A42F3D1BDF81A2073887F
S31500000B6C9A42EED19DF81C307371CDE90309CDE99B
S31500000B7C0100CDF800803B463246A9B20220FFF7B1
S31500000B8C4FFE0028DDD00446DEE7F0B587B00746F9
S31500000B9C14460E461622002168461D4603F0BEFA80
S31500000BACADF80C70ADF80A40F6B1082231460DF1DD
S31500000BBC010003F057FABDF8143043F00203ADF808
S31500000BCC143000238DF80030BDF83430ADF80E30FB
S31500000BDC0F9ABDF83030BDF83810ADF810306846B5
S31500000BEC0EF096FB07B0F0BD1DB1ADF812500C23FC
S31500000BFCE8E74FF6FB739C428CBF082400248DF863
S31500000C0C0040E1E707B5094A0346108831B9084A9E
S31500000C1C084903B05DF804EB03F0A2BF0091064A45
S31500000C2C064903F09DFF03B05DF804FB1622002075
S31500000C3C8D130300ADDC020031140300B4DC02009A
S31500000C4C7FB505460E461CF08FFC2A460446034625
S31500000C5C0C49042003F068FF8CB986B101238DF88A
S31500000C6C0E3003230093224603AB36214FF6FC705D
S31500000C7C8DF80C408DF80D5006F0F8FF0446204612
S31500000C8C04B070BD96DC0200FF2810B50C4604D1EA
S31500000C9C0420044903F048FFFE202146BDE810401D
S31500000CACFFF7CEBF59DE0200F8B51F460B88064685
S31500000CBC0D461446002B63D14A88110448BF63784D
S31500000CCC3049082003F030FF6B8848F20402934247
S31500000CDC32D00FD848F2010293423ED048F20202BB
S31500000CEC934242D0132B0ED1A2786378264903EB9C
S31500000CFC022223E048F20602934223D032D348F272
S31500000D0C2002934226D03B4622462946304600F026
S31500000D1CF5FD40B96A8848F221039A4203D16178FD
S31500000D2C304601F07CFF6B88B3F5004F02D90820E2
S31500000D3C0DF08CF8012024E0144A1549082003F024
S31500000D4CF3FEE0E7134A1249082003F009FF227963
S31500000D5C1149F3E762781149F0E71149082003F0CD
S31500000D6CE3FED0E722790F49E8E70F4A0849082045
S31500000D7C03F0F6FEA27863780C4903EB0222DDE75A
S31500000D8C0020F8BDC1DC020037DD0200E6DC020003
S31500000D9CEDDC0200FEDC020004DD020012DD0200C6
S31500000DAC4EDD020068DD02008ADD02008FDD0200E6
S31500000DBC2DE9F04788B00C4692469946BDF840504E
S31500000DCC119E804621F0B6FA628823881D4900924E
S31500000DDC07462A46022003F0A7FE8DF80880CDE9C7
S31500000DEC0346ADF81450ADF816708DF818A08DF8B2
S31500000DFC199000F09FFA8DF81A0000F09DFA8DF804
S31500000E0C1B0011F0A0FE8DF81C0002A807F0E2FAF8
S31500000E1CA8B92B4632462146384604F001FD70B976
S31500000E2C2B46324621463846FFF73EFF38B9CDE908
S31500000E3C00702B4632464146204605F0C9F908B0EB
S31500000E4CBDE8F087D7DB02002DE9F04F85B0804670
S31500000E5C89461446BDF838600F9D9DF840B01F4674
S31500000E6C002B2CD0434A4449042003F079FE2388F6
S31500000E7C002B70D040F2091293426ED03F4A404983
S31500000E8CB3F5827F18BF0A466188009101963D49E9
S31500000E9C042003F065FE23886BB1022E0BD92B7848
S31500000EAC39493A4A13F0010F18BF0A46AB7838494C
S31500000EBC042003F055FE3749042003F035FE364A6C
S31500000ECC0023114602EBC3000079584547D152F86E
S31500000EDC33A0002301EBC3021079584545D1FF20FE
S31500000EEC1071002241F8332047B9238833B9B4F97D
S31500000EFC0230002B02DB08200CF088FF01200CF0DE
S31500000F0CA5FF9DB12878C30710D510F0040004D0B6
S31500000F1C32460121284603F092F9CDE9017000957D
S31500000F2C334622464946404601F0FCF8BAF1000F1A
S31500000F3C06D0CDE900573346224649464046D047AF
S31500000F4C3346224649464046CDE90E5705B0BDE824
S31500000F5CF04F01F060BE114A96E7114A94E701334F
S31500000F6C0A2BAFD14FF0000AB3E701330A2BB1D1EC
S31500000F7CBAE700BF1BDC020023DC020011DC020016
S31500000F8C70DC02002DDC0200720D030014DC020082
S31500000F9C5CDC0200FCFB0200242100200ADC0200BF
S31500000FAC0EDC0200962813B504463BD034D89128A3
S31500000FBC43D0942836D0902848D100F0B5F9274B69
S31500000FCC0090274A2749042003F0AEFDBC2C2FD1F4
S31500000FDC2549042003F0A8FD01F061FE01F060FE36
S31500000FEC01F05EFE20460CF02BFE204611F062FC52
S31500000FFC20460FF04FF920460EF056FD20460FF016
S3150000100C45FA2046FFF780FA30B31849042002B09F
S3150000101CBDE8104003F088BDAF2807D8AB280AD22C
S3150000102C982813D1124B0E4A124909E0BC28C3E783
S3150000103C23F0F0FAD4E79128F4D1084B084A0E496C
S3150000104C042003F071FD04F0EAFECBE722460B49BF
S3150000105C022003F069FDC5E702B010BDA0DD020059
S3150000106CA9DD0200B0DD0200BDDD02000DDE0200CE
S3150000107CE4DD0200ECDD0200DBDD0200F5DD020042
S3150000108C13B50F4C002003F0FBF823686BB101A8D5
S3150000109C00F038FB48B923681A789DF804309A4258
S315000010AC03D0012A07D1022B05D1032301A8ADF8E1
S315000010BC04301DF011F903F0EAF802B010BD00BFC0
S315000010CC1022002010B5044603F0DFF8204601F08C
S315000010DCEFFDBDE8104003F0DAB800000D4B1B68BD
S315000010EC37B505469BB11C780289C37A0A4900922A
S315000010FC012C0A4A4FF0010008BF022403F014FD2C
S3150000110C2946204603B0BDE830401DF081B870205A
S3150000111C03B030BD102200203DDE0200BAD702001B
S3150000112C10B5044600F0F8F8631E04F10F02002116
S3150000113C13F8010FFF2808BF19709342F8D100234A
S3150000114C237410BD7FB504AB03E9030000239DF89F
S3150000115C0D509DF80E6016491C46D8B201EBC00224
S3150000116C5268EAB99DF80C1000919DF80B309DF869
S3150000117C0A201049042003F0F3FC25B12A460E4937
S3150000118C042003F0EDFC0D4ABDF808300C49002C88
S3150000119C18BF2246042004B0BDE8704003F0C4BC5E
S315000011AC11F830000133B04208BF1446D5E700BF32
S315000011BC94DE020073DC020084DC02006FDC0200A9
S315000011CC88DC0200FFF7AEB910B50BF092FB0123D9
S315000011DC00224FF4E13120200FF07CFE07F0AAFC30
S315000011EC044608F09BF9224603461249012003F0F7
S315000011FC9BFC07F0A5FC044608F09EF92246034624
S3150000120C0D49012003F090FC07F094FC012303FA2E
S3150000121C00F040F2A17318420BD0084C207807F06E
S3150000122C95FC207807F04EFD2078BDE8104007F0BD
S3150000123C4FBE10BD0FE0020025E002006D1B002022
S3150000124C37B50022114601A801F0E2FC00284DD169
S3150000125C1AF0C6FE0346002843D02649264A01202A
S3150000126C03F062FCAA21254807F04AFA02F0FEFFB9
S3150000127CFFF7AEFB00F068FB00F026FB02210846E8
S3150000128C03F0B6FFFFF7FCFE02F08AF81C4B1D4C70
S3150000129C1D4D41F202021A801C4A522313801C4A2D
S315000012AC4FF40040138017F0D5F908F005F81AF042
S315000012BC41FF02F00DFE012801D000F00EFB0FF0ED
S315000012CC5FFEFFF71DFA2021002002F09BFA28B1E1
S315000012DC224629464FF6FF7003F042FC02F0D9FF76
S315000012ECE3E70C49022003F01FFCBFE7019803B0AB
S315000012FC30BD00BF30DF02001BDC020041DF020004
S3150000130C84200020F7DF02000BE00200862000207C
S3150000131C88200020EDDF0200024910237F22098875
S3150000132C07F010BFD02503001AF0CCBF1AF0D6BFB9
S3150000133C1AF098BD21F0FEBA1FB5684621F008F8E0
S3150000134CC8B902A922F024FF082269460DEB020057
S3150000135C02F0EBFE10B9002004B010BD02A901206A
S3150000136C22F016FF082269460DEB020002F0DDFEA4
S3150000137C90B90120F0E720F0DDFF4FF6FF7398429D
S3150000138C044609D0002022F01BFF8442E3D0012042
S3150000139C22F016FF8442ECD0FF20DDE738B5054677
S315000013AC02F086FF044698B94FF4A8532A46094919
S315000013BC082003F0B9FB4FF4A851284606F0C8FBE9
S315000013CC054902460446082003F0AEFB02F05FFF17
S315000013DC204638BD45E0020051E002007FB50546C7
S315000013EC02F053FF1AF06EFF40B16B88B3F5006F35
S315000013FC04D1681D01F011FC044616E0284601F0E4
S3150000140C53FCD8B90446E6B26946304628F080FB50
S3150000141C80B99DF800306BB92946304628F0FAFBA6
S3150000142C0028E9D075280BD08C2402F030FF20461A
S3150000143C04B070BD01340A2CE5D1F5E78D24F4E730
S3150000144C8B24F2E738B5054602F01FFF284601F05B
S3150000145C29FC98B9284628F0ABFB68B175280CBF57
S3150000146C8B24882423462A460549082003F05CFB76
S3150000147C02F00DFF204638BD0446F3E78D24F7E74E
S3150000148C5BE0020037B502A9FF2301F8013D0446D3
S3150000149C01F0B4FB18B19DF8070003B030BD094B41
S315000014AC03EB04131D7B11F050FB854201D0FF208A
S315000014BCF3E7204600F090FA0028F8D0204600F01A
S315000014CC11FDEAE74C3000202DE9F04107460D46A8
S315000014DC01F096FB0646F0B9384600F041FCFF28B1
S315000014EC19D00E4C04EB001494F80C8011F02DFB63
S315000014FC804510D163882B80A3886B80A3792B71D0
S3150000150C0121384600F0F4FC31466871384600F08B
S3150000151CEFFC0126A8713046BDE8F0814C30002066
S3150000152CF8B504460E46154600F01AFCFF2802D103
S3150000153C4FF6FF70F8BD0B4B03EB0010077B11F059
S3150000154C04FB8742F4D146B901222946204600F015
S3150000155CF5FC0028ECD00088ECE7012EE8D100223F
S3150000156CF3E700BF4C30002010B5044602F08DFEA8
S3150000157C2046FFF717FDBDE8104002F088BE0000BC
S3150000158C37B50C4B1B681C5C94420D460AD900926D
S3150000159C2346094A0949042003F0C6FA00242046CA
S315000015AC03B030BD002201460092234628461BF0AC
S315000015BC51FAF4E7D01B00201BDC020018DF0200F6
S315000015CCF0B599B0144603AD0F46064602F05DFE23
S315000015DC204652222946FFF7D3FF84B28CB10DF177
S315000015EC0A0020F097FE0DF10B0020F09BFE9DF9F2
S315000015FC0B309DF80A20CDE9004539463046FFF7F9
S3150000160CD7FB02F044FE19B0F0BD2DE9F0419AB0BB
S3150000161C1D4605AC0F469046064602F036FE522293
S3150000162C21462846FFF7ACFF50B180B20090CDE9B9
S3150000163C01459DF88030424639463046FFF704FC9A
S3150000164C02F025FE1AB0BDE8F0812DE9F7430746F6
S3150000165C0E460A98BDF830809DF83490194615460A
S3150000166C1BF020FAFF2804463AD00B9B1870062F65
S3150000167C34D8DFE807F004040412192922000346C3
S3150000168C2A463146384621F0BBF8054620461BF063
S3150000169CADF8284603B0BDE8F0830C22034611468C
S315000016AC284621F07FF8F0E7EA7A0346CDE900896F
S315000016BC1146284621F038F8E7E703460C2229465E
S315000016CC304620F0D7FFE0E70190EB7A00934A46CC
S315000016DC2B463146404620F0F1FFD6E70225D5E7EA
S315000016EC1825D6E70822014902F0BCBC614000204F
S315000016FC10B5044608461AF0C9FB2046BDE8104052
S3150000170C1CF0B0B81CF0AEB805207047002070472E
S3150000171C0A207047014B1878704700BFE81B002061
S3150000172C4B207047024B18685968FFF70BBD00BF7A
S3150000173C565C030013B5044602F0A7FD0DF1060036
S3150000174C20F0E8FD0DF1070020F0ECFD9DF90720D7
S3150000175C9DF8061020460CF0F5FF30B99DF90720D0
S3150000176C9DF8061020460FF075FB02F090FD02B0B6
S3150000177C10BD38B504460D4602F087FD29462046B5
S3150000178C0DF02AF918B9294620460FF073FBBDE86F
S3150000179C384002F07CBD38B504460D4602F075FDA6
S315000017AC294620460DF038F818B9294620460FF080
S315000017BC3FFBBDE8384002F06ABD38B504460D461D
S315000017CC02F063FD294620460DF04EF818B929465D
S315000017DC204601F074FABDE8384002F058BD704757
S315000017EC00F090B8704700002DE9F341224B0193AD
S315000017FC1646044640B13AB1002301AA9D5C8D42BF
S3150000180C33D00133042BF9D1022002B0BDE8F081AC
S3150000181CE35C93FAA3F30146180E02F04BFB434626
S3150000182C03F10108DBB2BB42F2DBC2B292FAA2F2BE
S3150000183CC0F30F2393FAA3F3100E1B0E03EB002336
S3150000184C6219DB439BB212F8020CD9B2884211D151
S3150000185C12F8012CB2EB132F0CD132462146284636
S3150000186C02B0BDE8F04127F013BA00234FF6FF7023
S3150000187C8F1ED5E7BD20C8E7080A0E122DE9F041E8
S3150000188C984686B00F4B1546064603A80F461C789D
S3150000189C25F02EFC15F0FD0F12D030B9BDF80C302A
S315000018AC9B0702D5032D08BF0324304600942B4614
S315000018BC4246394601F001FA204606B0BDE8F081F1
S315000018CC0324F2E77421002008B504F077FA01F03E
S315000018DC9EF9BDE808400CF07FBA08B501F09AF9FC
S315000018EC0CF034FC0DF074F90DF06CFABDE8084000
S315000018FC04F094BA0EF0CCBC01F0C7B901F0C9B92A
S3150000190C0020704738B504460D4610F039F82946C4
S3150000191C2046BDE8384001F0D5B901F0BCB901F05C
S3150000192CC5B9000010B5074A0123312B194601D160
S3150000193C002006E00233D41814F8034C8442F4D188
S3150000194C505C10BD71E00200F0B587B040F2012387
S3150000195C194A1A49ADF80030194B1A4D0220CDE937
S3150000196C04230870002301221749ADF80430ADF8A2
S3150000197C0820ADF80C300DF1100E0DF1140C01AF62
S3150000198C02AE03AC10461DF803200A703EF8132075
S3150000199C4A803CF813208A80DA5D8A71F25C4873BF
S315000019AC05EBC2028A601A5D0A7310310BB107B0DF
S315000019BCF0BD0123E7E700BF0401040175210020F7
S315000019CC02041008B8E402004C300020014B1878D1
S315000019DC704700BF75210020034B03EB0010407BC2
S315000019EC00F00100704700BF4C300020413803283E
S315000019FC8CBF002001207047413801288CBF002085
S31500001A0C01207047433801288CBF00200120704705
S31500001A1C00207047064BC01A064B801043430F3B01
S31500001A2C9BB2022B41F2020028BF0020704700BF78
S31500001A3CA4E20200CDCCCCCC0388B3F57C4F01D309
S31500001A4CFFF7E8BF0846FFF7E3BF10B54A880488DE
S31500001A5CA2420DD1037B0C79234009D0B2F57C4F01
S31500001A6C08D3FFF7D7FF0B891B1A5842584110BDF4
S31500001A7C0020FCE70120FAE738B50D88D488A5428A
S31500001A8C0AD10388B3F57C4F08D2FFF7D5FF13892B
S31500001A9C1B1A5842584138BD0020FCE70120FAE7D2
S31500001AAC2DE9F04F8BB04FF0000A01939DF85030A2
S31500001ABC0593714BDFF8D0911B780491804615463F
S31500001ACC08935746089A5FFA8AF39A4201D88620F9
S31500001ADC63E099F800300293D9F808300393029A20
S31500001AEC98F80030934240F0BF8099F80D30D80733
S31500001AFC09D5039B1B7907934FF0000B079A5FFAE6
S31500001B0C8BF39A4204D80AF1010A09F11009D9E7B4
S31500001B1C039B1E68142303FB0B6641463046FFF7F6
S31500001B2C94FF002800F09C803389069300230699C5
S31500001B3C9AB2914202D80BF1010BDFE77468099354
S31500001B4C0C2202FB0344214642463046FFF794FF23
S31500001B5C2279099B00287BD0049B03B11C6091065B
S31500001B6C1ED4464809E01A79920642BFD8783F1827
S31500001B7CBFB20C339C42F6D84148059B074493B13F
S31500001B8C21463046FFF758FF2388B8F80210024664
S31500001B9C029801F018F860BB7E200BB0BDE8F08F00
S31500001BAC0027384BE6E7002D35D021463046FFF7A7
S31500001BBC43FF2388B8F802100246029801F001F898
S31500001BCC0028E9D0DFF8C49028462379DB0615D522
S31500001BDC21463046FFF730FF98F80060B8F802103F
S31500001BEC1495034622463046CC460BB0BDE8F04F62
S31500001BFC60473846DFF898902F46E6E7019AA378B7
S31500001C0C5AB9E278A3F14101012908D8013AD2B2B6
S31500001C1C394604F005FC0020BFE7019AF2E7433B86
S31500001C2C012B05D8023A92B2394604F013FCF2E7BE
S31500001C3C059B2BB9019B1BB1E37801998B4218D8F4
S31500001C4C394617B902F06AFAE5E702F00BFAE2E751
S31500001C5C12F0300F02BFE0783F18BFB2013366E7CF
S31500001C6C70890744BFB266E7039BD8880744BFB2A6
S31500001C7C49E7892091E700BF752100206C300020D0
S31500001C8C882F0020B8E002004C300020F92B000011
S31500001C9CFD2B000010B586B000248DF81030BDF871
S31500001CAC20308DF80C00ADF80E10ADF81220ADF802
S31500001CBC143000942346224602A903A80294FFF787
S31500001CCCEFFE029806B010BD2DE9F84390F804809B
S31500001CDC06461F4600254FF01409EBB2984501D86D
S31500001CEC002416E009FB05F033681C181B5A8B42BE
S31500001CFC17D12AB1802A0FD194F90C00002810DADA
S31500001D0CB3F57C4F05D32046FFF784FEB84200D0CE
S31500001D1C3FB92046BDE8F883402A02D1207B400615
S31500001D2CEED40135D9E7000030B50B4B0B4A1C78C5
S31500001D3C0023D9B2A14201D3002030BD194601338C
S31500001D4C02EB031515F8105C8542F2D102EB011279
S31500001D5C507B00F00100F0E7752100204C3000208C
S31500001D6C70B50A4B0A491D780023DAB2AA4202D38F
S31500001D7CFF22104670BD1C016618645C844202D1B9
S31500001D8C747BE407F5D40133EFE700BF752100201F
S31500001D9C4C3000202DE9F0410D4616461F46FFF744
S31500001DACDFFFFF280AD0074C04EB00103B463246F7
S31500001DBC29468068BDE8F041FFF786BF0020BDE8E4
S31500001DCCF08100BF4C30002008B513460022FFF707
S31500001DDCE1FF003018BF012008BD08B513464022AC
S31500001DECFFF7D8FF003018BF012008BD08B5134611
S31500001DFC8022FFF7CFFF003018BF012008BD08B5C1
S31500001E0C40220023FFF7C6FF003018BF012008BD93
S31500001E1C08B580220023FFF7BDFF003018BF012054
S31500001E2C08BD000030B5094B094C19780023DAB20D
S31500001E3C8A4201D3FF2206E0013304EB031515F8A1
S31500001E4C105C8542F3D1104630BD00BF75210020D1
S31500001E5C4C3000202DE9F0410D4616461F46FFF783
S31500001E6CE1FF054C04EB00103B46324629468068E0
S31500001E7CBDE8F041FFF728BF4C3000202DE9F84FA4
S31500001E8C0746884691469A46FFF784FFE0B10F4B0A
S31500001E9CDFF83CB01E7800252C46EBB2B34202D3D9
S31500001EAC2046BDE8F88F01350BEB051313F8100C23
S31500001EBC8742F5D053464A464146FFF7CBFF0028EA
S31500001ECC18BF0134E4B2E8E7FF24E9E775210020E6
S31500001EDC4C30002013464022FFF7D0BF0022FFF7FC
S31500001EECF9BF0000014B0001185C70474C30002014
S31500001EFC70B50D46FFF734FFFF2818D00E4B03EBD9
S31500001F0C001082689AB10023117918461426DCB2A7
S31500001F1CA14200D870BD146806FB0344247B45B16E
S31500001F2C14F0400F1CBF0130C0B20133EFE70020A4
S31500001F3CF0E714F0800FF5E74C3000202DE9F04166
S31500001F4C0F469046FFF70CFFFF280BD0104B03EB08
S31500001F5C00100023856829791C464FF0140CDAB260
S31500001F6C914202D80020BDE8F08128680CFB0300E2
S31500001F7C067BB8F1000F08D016F0400F03D0BC4218
S31500001F8CF1D00134E4B20133E9E716F0800FF5E73E
S31500001F9C4C3000202DE9F04F89B0074610F0D3FDE8
S31500001FAC3D4B1B780293824600244FF00C0B029B90
S31500001FBC9C422ED2FF2F05D03846FFF7D1FEFF28C4
S31500001FCC044626D0FF2F354E4FEA041360D1F21883
S31500001FDC127B52455CD00134E4B2E8E71B6814224C
S31500001FEC02FB05352B89B3F5967F01D907F064F909
S31500001FFC4FF000092A891FFA89F39A420CD808F186
S3150000200C0108B3681A795FFA88F5AA42E6D8FF2F59
S3150000201CE1D009B0BDE8F08F1FFA89F168680BFBB7
S3150000202C01F14218137913F0100F29D196F800C05C
S3150000203C8DF814C0B5F800C0ADF816C013F0400FFB
S3150000204C0CBF4FF0400C4FF0800C8DF818C0415A65
S3150000205CADF81A10284611460393FFF7EDFC039BC7
S3150000206CADF81C005B07D1780DD50229926800D912
S3150000207C1268012300930023194605A8FFF710FDEB
S3150000208C09F10109B6E7022994BF08329268F0E714
S3150000209C4FF000081E44B4E7752100204C30002098
S315000020AC0021FFF777BF10B501210446FFF772FF39
S315000020BC2046BDE81040FFF71DBC704710B5047BE9
S315000020CC14EA010310D0002201238B4203D30369C7
S315000020DC53F8220010BD1C4218BF01324FEA4303CD
S315000020EC18BFD2B2DBB2F0E71846F3E7F8B51646DE
S315000020FC1F469DF81820BDF81C300546FFF74AFE12
S3150000210C78B10421FFF7DAFF044650B1284602F0F5
S3150000211CCFF83A4631462846A047BDE8F84002F0CB
S3150000212CB6B8F8BD2DE9F74F0C9D9DF834B01F4697
S3150000213C81468A46BDF83830144612B30DB307B340
S3150000214C92F804802A78618812F0080F14BF402296
S3150000215C80224046FFF71EFE98B10821FFF7AEFF1E
S3150000216C064670B1404602F0A3F8CDE9005B3B464B
S3150000217C224651464846B04703B0BDE8F04F02F040
S3150000218C86B803B0BDE8F08FF8B5BDF81850174601
S3150000219C1A462B460446FFF7FDFDE0B175B9022140
S315000021ACFFF78CFF0546B0B1204602F081F83946A0
S315000021BC2046A847BDE8F84002F069B81021FFF7A1
S315000021CC7DFF064638B1204602F072F82A4639469B
S315000021DC2046B047EEE7F8BD73B5BDF81840164675
S315000021EC1A4623460546FFF7D5FDB8B1C4B92021DA
S315000021FCFFF764FF044670B1284602F059F8099BB4
S3150000220C00939DF81C209DF8203031462846A047A7
S3150000221C044602F03CF8204602B070BD8624FAE76C
S3150000222C0024F8E72DE9F04186680446007802F0B0
S3150000223C3FF8002514273279EBB29A4203D8BDE851
S3150000224CF04102F024B87B4332682078D15A02EB75
S3150000225C030800F0BCFC01214046FFF72FFF0346A4
S3150000226C08B1207898470135E5E7000070B5084DB0
S3150000227C084E00242B78E0B2834200D870BD06EBE2
S3150000228C0010437BDB0701D5FFF7CCFF0134F1E7E8
S3150000229C752100204C3000202DE9F0411E4B0646DE
S315000022AC1E480C4619780023DAB28A4203D300245E
S315000022BC2046BDE8F0815A1C00EB021515F8105C9F
S315000022CCB54201D01346EFE700EB0310437B03F056
S315000022DC01022CB143F00103437342B10124E7E739
S315000022EC4473002AFAD005464FF014080DE0FFF7A8
S315000022FC99FFDDE71B6808FB04F41A19195B127BBE
S3150000230C3046D209FEF766FA3C46AB681A79671C6A
S3150000231CE4B2A242EED8E1E7752100204C30002051
S3150000232C044BC01AC0F38F002D2841F2020018BFCF
S3150000233C00207047F8E302002DE9F74F9A469DF806
S3150000234C3830BDF830B001934C7D60B384B3012CAA
S3150000235C18BF04249DF83C70DFF87C8000263546B7
S3150000236CBFB236F80800904216D108EB060090F87A
S3150000237C03E01EEA040F0FD090F80290019B9945DA
S3150000238C0AD31EF0100FCB7B14D02BB1FFF7C8FF6E
S3150000239CB1F810C084450FD00436B82EE1D1012017
S315000023AC03B0BDE8F08F002C14BF04240824D1E739
S315000023BC0224CFE7002BEFD1AF420AD0AB4508D9A8
S315000023CC0AF805900D9B1888013501301880ADB2BE
S315000023DCE2E70020E4E700BFF8E302002DE9F04F46
S315000023EC89B01D46BDF848409DF850300193934680
S315000023FC23462A4607460E46FFF7CCFC8DF814708A
S3150000240CADF816608DF81850ADF81AB0ADF81C4042
S3150000241C814618B9012009B0BDE8F08F05A9FFF770
S3150000242C14FB0028F6D09DF84C3000259BB22E46A6
S3150000243C2F462C46029336E00C231FFA85F8B9F882
S3150000244C002003FB08F8D9F80430B2F57C4F03EBF7
S3150000245C080A1AD333F8080058452ED3029BA34218
S3150000246C2DD901F0A7FE9AF8020001F08FFE019B10
S3150000247C43B19AF8043013F0010F0CBF0520072066
S3150000248C01F084FE0134A4B219E033F80820ADF84B
S3150000249C1A20514605AA48460393FFF7EDFA039B0B
S315000024AC0028D7D10135B9F80820ABB29A42C3D867
S315000024BC3C44A31B58425841ADE70137BFB2013625
S315000024CCB6B2EFE72DE9F04F8FB098469DF8703015
S315000024DC06930023BDF860908DF82C00ADF82E10F5
S315000024ECADF83220009305460E46174608A91A4643
S315000024FC0BA80893199C9DF868B09DF86CA08DF8F4
S3150000250C3080ADF83490FFF7CBFA089B002B00F027
S3150000251C9880BAF1000F07D19A785A4540F094800A
S3150000252C1A79D10740F193801A79520735D59A68F2
S3150000253C5168926809910A92987804F007F8089BFA
S3150000254C059093F803A0BAF1020F17D8034652462A
S3150000255C214609A803F09FFF059B0790524621468A
S3150000256C0AA803F098FF079B012B01D0013014D168
S3150000257C4FF0870A50460FB0BDE8F08F059B0998BF
S3150000258C5246214603F087FF0128F1D0059B0A9895
S3150000259C5246214603F07FFFE8E7069B002B59D1F4
S315000025AC089B0394DB78CDF80090CDE901B33A464D
S315000025BC43463146284600F064FB82460028D9D1B2
S315000025CC089B0394DB78CDF80090CDE901B33A462D
S315000025DC434631462846FFF7FFFD82460028C9D1FF
S315000025EC01230093069B224619460BA8FFF758FABF
S315000025FC82460028BED1089B324629462046FFF764
S3150000260C5CFD43463A4631462846CDE901B4CDF841
S3150000261C00900EF04FF9089B0394DB78CDF80090F0
S3150000262CCDE901B33A4643463146284600F028FB2D
S3150000263CCDF8009043463A4631462846FFF7A4FDAE
S3150000264C98E74FF0860A95E74FF08D0A92E74FF020
S3150000265C880A8FE74FF0000A8CE72DE9F04786B021
S3150000266C07460F9D9DF84060BDF838400094CDE9B3
S3150000267C0156884691469A4600F0A1FA98B102286E
S3150000268C0ED84FF00003049308BF0123CDE9026373
S3150000269CCDE9004553464A4641463846FFF712FFF8
S315000026AC06B0BDE8F0870120FAE730B587B0002404
S315000026BC0125CDE903549DF82C5002950A9DCDE9D0
S315000026CC0045FFF7FFFE07B030BD30B587B00024DC
S315000026DC0125CDE903549DF828500094CDE9013528
S315000026EC4023FFF7EFFE07B030BD10B586B04FF0B4
S315000026FC010C0024CDE9034C9DF828400294099C5A
S3150000270C0194BDF820400094FFF7DCFE06B010BD26
S3150000271C30B587B000258DF81030BDF828308DF80F
S3150000272C0C00ADF80E10ADF81220ADF81430009573
S3150000273CBDF830300B9A0D9C029502A903A8FFF741
S3150000274CAFF918B914B1029B9B78237007B030BD52
S3150000275C1FB5089C03949DF81C400294069C01949A
S3150000276C00240094FFF7D4FF04B010BD30B585B03B
S3150000277C00249DF820500394CDE9013500944023A4
S3150000278CFFF7C6FF05B030BD2DE9F04FDFF8CCB032
S3150000279C99B04FF00008FFF719F95FFA88F5A842CF
S315000027AC02D819B0BDE8F08F2D010BEB05034FF0E5
S315000027BC000904930BEB05035FFA89F49B681A79FD
S315000027CCA24202D808F10108E5E71B68142202FBB5
S315000027DC043400262289B3B29A4202D809F10109BF
S315000027ECE8E70C231FFA86FA03FB0AFA63680593DB
S315000027FC03EB0A0706F060FD39462046FFF71CF985
S3150000280C049B218893F800C0059B33F80A203B797A
S3150000281C4FF0000E13F0400F0DF11C0A4FF0410360
S3150000282CCDE9023ECDE9000A14BF80234023604661
S3150000283CFFF76EFF862806D0B878FFF7DDF820B1D3
S3150000284C504601F002FD0136C4E7B878FFF7DAF816
S3150000285C0028F8D0504601F0FDFCF4E74C3000207F
S3150000286CF0B597B01646BDF87470042F48D90DF123
S3150000287C130403944124029405ADBDF870400094F2
S3150000288C0195FFF745FF0446A0BB9DF81300A0F188
S3150000289C4103012B21D8284601F0D7FC0130C4B2E4
S315000028ACE31CBB422CDA304601F084FC154E0020AA
S315000028BC01F06CFC9DF8130001F068FC33881A19C2
S315000028CC512A1DDC1048A4B222461844294601F0B0
S315000028DCC9FB30880444348012E0A0F14303012B79
S315000028EC04D8284601F0B6FC0230D8E7FFF71AF8F0
S315000028FC0446D5E7304601F05DFC204601F046FC67
S3150000290C17B0F0BDE0300020F030002038B5C37BA6
S3150000291C05460BB1832038BDC47C2CB905F04CFAA6
S3150000292C20B9EB7B002BF5D18120F4E72046F2E7AA
S3150000293C38B5C37B05460BB1832038BDC47C6CB956
S3150000294C017D82898B1C9A420AD3806801F077FC40
S3150000295C0BF086FE30B9EB7B002BEDD18120ECE73A
S3150000296C8020EAE72046E8E7C37B10B504460BB1A6
S3150000297C832010BDC37C1BB1012B10D08120F8E73E
S3150000298C017D82898B1C9A420CD3806801F057FC1E
S3150000299C0CF094F940B9E37B002BE9D1EEE70CF08F
S315000029ACA5F9F7E78020E4E70020E2E738B5C37B1A
S315000029BC04460BB1832038BDC37C032B15D8DFE846
S315000029CC03F002161924017D8289CB1C9A4227D367
S315000029DC8068455C013101F032FC014628460DF059
S315000029EC85FBF8B9E37B002BE4D18120E3E70DF0FE
S315000029FCD7FBF6E7017D82890B1D9A4210D38068BE
S31500002A0C01F01AFC0DF018FCEBE7017D82898B1C9A
S31500002A1C9A4205D3806801F012FC0DF023FCE0E726
S31500002A2C8020C8E70020C6E7C37B2DE9F7430446A0
S31500002A3C1BB1832003B0BDE8F083C37C412B33D09C
S31500002A4C422B42D0402B2DD1037D828903F11001FC
S31500002A5C8A424BD39DB2806805F10801C61801F075
S31500002A6CEEFB05F10A030746A068A28910F803805D
S31500002A7C05F10B0101F0E3FB05F10D018146A2897D
S31500002A8CA06801F0DCFB0F35A3685B5D4246CDE91F
S31500002A9C000339464B4630460FF054FF40BBE37BF0
S31500002AAC002BC6D18120C5E7057D8289EB1C9A4295
S31500002ABC1CD3AAB28068961C511CD31C0344825D9D
S31500002ACC415C405D0FF044FFE8E7057D8289EB1C15
S31500002ADC9A420BD3AAB28068961C511CD31C034491
S31500002AEC825D415C405D0FF051FFD7E78020A1E786
S31500002AFC00209FE738B5C37B002B437D14BF83258D
S31500002B0CC325012B044628D10368028A59885879B3
S31500002B1CFFF76CF908B323685B88062B05D8052BE1
S31500002B2C0BD2032B0DD0284638BDB3F5407F04D00D
S31500002B3CB3F5805F0CD0082BF5D1E37B33B183253D
S31500002B4CF1E72046BDE83840FFF7F2BE8125EAE7FB
S31500002B5C2046BDE83840FFF767BF637D002BE2D106
S31500002B6C2368228A59885879FFF737F90028DAD072
S31500002B7C23685B88202B1DD009D8012BDDD014D3FC
S31500002B8C032BD0D12046BDE83840FFF7EDBE40F60A
S31500002B9C05329342D1D002D8B3F5A06FCCE7A3F59A
S31500002BAC7C43013B012BC8D9BDE72046BDE8384024
S31500002BBCFFF7ACBE2046BDE83840FFF7F7BE012054
S31500002BCC7047012070470120704770477047704767
S31500002BDC0020704700207047002070470020704787
S31500002BEC0020704700207047002070470120704776
S31500002BFC01207047B52070470020704700207047B1
S31500002C0C00207047002070477047002070477047BF
S31500002C1C002070477047002070478420704770472B
S31500002C2C002070477047704700207047704700209F
S31500002C3C70470120704770477047704770470120F6
S31500002C4C704700207047002070470000034B1B683C
S31500002C5C1878012808BF0220704700BF10220020F8
S31500002C6C7047002070470000034A03460120C3E961
S31500002C7C032000221A7070470100FEFF7047704750
S31500002C8C70470020704700207047002070470020D6
S31500002C9C704700207047002070470020704770472F
S31500002CACB520704700207047002070470020704701
S31500002CBC704770477047B52070477047704770472C
S31500002CCC00207047704701220521104603F0AABD6B
S31500002CDC04220521012003F0A5BD032205210120B4
S31500002CEC03F0A0BD02220521012003F09BBD0522A5
S31500002CFC1146012003F096BD06220521012003F0A2
S31500002D0C91BD41220521012003F08CBD40220521F5
S31500002D1C012003F087BD42220521012003F082BD6C
S31500002D2C00220521012003F07DBD0222062101208F
S31500002D3C03F078BD42220621012003F073BD412227
S31500002D4C0621012003F06EBD01220621104603F078
S31500002D5C69BD40220621012003F064BD0022062134
S31500002D6C012003F05FBD03220821012003F05ABDA8
S31500002D7C02220821012003F055BD0722082101205B
S31500002D8C03F050BD06220821012003F04BBD04229E
S31500002D9C0821012003F046BD05220821012003F07D
S31500002DAC41BD00220821012003F03CBD012208216F
S31500002DBC104603F037BD40220321012003F032BD3B
S31500002DCC01220321104603F02DBD00220321012010
S31500002DDC03F028BD02220321012003F023BD0022AB
S31500002DEC4FF4A061092003F01DBD01224FF4A06130
S31500002DFC092003F017BD47224FF44071012003F060
S31500002E0C11BD05224FF44071012003F00BBD0222C7
S31500002E1C4FF44071012003F005BD4C224FF4407174
S31500002E2C012003F0FFBC09224FF44071012003F08E
S31500002E3CF9BC03224FF44071012003F0F3BC0622C7
S31500002E4C4FF44071012003F0EDBC00224FF44071A9
S31500002E5C012003F0E7BC0A224FF44071012003F075
S31500002E6CE1BC07224FF44071012003F0DBBC0422C5
S31500002E7C4FF44071012003F0D5BC01224FF4407190
S31500002E8C104603F0CFBC4B224FF44071012003F0E7
S31500002E9CC9BC08224FF44071012003F0C3BC442284
S31500002EAC4FF44071012003F0BDBC42224FF4407137
S31500002EBC012003F0B7BC43224FF44071012003F00C
S31500002ECCB1BC40224FF44071012003F0ABBC41224F
S31500002EDC4FF44071012003F0A5BC0122002109200A
S31500002EEC03F0A0BC02292DE9F84F05468A4602D903
S31500002EFC63B1042908D85B49022001F015FE4FF096
S31500002F0C000B5846BDE8F88F42F004020C9C2A7060
S31500002F1C002B3ED06B701B0AAB70032703F022F814
S31500002F2C07F1020BE85501379DF82830EB554FF0A9
S31500002F3C00095FFA89F30B9AD65C002EE1D0732E4A
S31500002F4C50D8A6F14C01C9B2162904F10408276819
S31500002F5C29D8454B23FA01F1C94311F001012CD1B3
S31500002F6C60684C2E04F1080884B214D14FF6FF7138
S31500002F7C20468C4214BF022100210BEB04020A44AA
S31500002F8C92455EDA621839493346022001F0CCFDCF
S31500002F9CB5E70127C2E7532E0DD1C0B2B0F1FF0140
S31500002FAC18BF0121E9E76C2E07D1384601F052F91A
S31500002FBC023084B200210846DFE7732E04D138466E
S31500002FCC01F043F90130F4E7A6F13004E2B2092A24
S31500002FDC01D8A4B2EEE7A6F14102062A0AD8A6F158
S31500002FEC3704F6E7752E0BD0762E10D0782E10D02F
S31500002FFC772E10D032461E49022001F095FD7EE751
S3150000300C012104F10408206800242746B5E70221B3
S3150000301CF7E70321F5E70421F3E70CF1010E013A7A
S3150000302C05F80C00D2B2000A1FFA8EFC002AF4D165
S3150000303C8B441FFA8BFB84B137B9334622460D49B4
S3150000304CA3E7DC460A46F1E705EB0B0022463946B8
S3150000305C01F008F8A3441FFA8BFB09F10109444659
S3150000306C67E700BF18FB02008100400056FB020018
S3150000307C3DFB020089FB020010B5044C206004489D
S3150000308C018004490A60044A136010BD80210020A7
S3150000309C842100207C2100207821002070B586B088
S315000030AC0AAC0D4654F8046B0B4905940988009339
S315000030BCCDE901641346024608480068FFF712FF83
S315000030CC074B1B681880074B1B684FF48A525D80B0
S315000030DCDA8006B070BD00BF84210020802100205C
S315000030EC7C2100207821002008B430B586B009ABCD
S315000030FC0C4653F8045B0D49059309880092CDE9FB
S3150000310C015302460A4800230068FFF7EBFE094B01
S3150000311C1B681880084B1B684FF48A525C80DA8057
S3150000312C06B0BDE8304001B0704700BF84210020D6
S3150000313C802100207C21002078210020044B054AA8
S3150000314C196812680988034603480068FDF7E7BC4E
S3150000315C7C21002080210020782100200020FFF710
S3150000316CEDBF0000044B054A1B6812681988044B16
S3150000317C1868FDF755BC00BF7C210020802100207B
S3150000318C7821002007B5074B1B681B880192064A5D
S3150000319C12680092054A1268FDF795FC03B05DF8BB
S315000031AC04FB00BF7C210020802100207821002018
S315000031BC0022FFF7E7BF000007B5064B1B681A880D
S315000031CC0091054B05491B680968FDF763FC03B0C4
S315000031DC5DF804FB7C210020802100207821002052
S315000031EC0021FFF7E9BF00001FB5094C24680394C2
S315000031FC084C246824880294BDF818400194064CA7
S3150000320C246864880094FDF7C0FC04B010BD00BFB0
S3150000321C802100207C21002078210020014B186899
S3150000322C704700BF78210020024B1B68187159713A
S3150000323C704700BF78210020F8B50D468C680A68E7
S3150000324C26490646202006F072FC6B687BB9244999
S3150000325C202006F06CFC20200DF07AFE214920205F
S3150000326C06F07AFC2020BDE8F8400DF071BE002E69
S3150000327CF1D01D4D1D4E1E4F013C14F8013F23B9D4
S3150000328C1849202006F068FCE5E7752B16D0762B3E
S3150000329C16D0772B16D0732B16D0722B16D0712B0B
S315000032AC16D0622B16D06E2B16D01249124A2A2B28
S315000032BC18BF1146202006F03AFCDEE72946F9E74E
S315000032CC3146F7E73946F5E70C49F3E70C49F1E7E0
S315000032DC0C49EFE70C49EDE70C49EBE79B2F030094
S315000032EC4BFC0200FCFB020009FC0200FDFB020089
S315000032FC14FC020052FC02004FFC020020FC0200EF
S3150000330C2AFC020035FC020040FC02004AFC0200CA
S3150000331CF0B5214A92F87B30184452FA80F01F4BD4
S3150000332C90F865C090F866501F78A5EB0C05002642
S3150000333CEDB23046F4B2A54225D90CEB0603134484
S3150000334C5B7811B10CB92D2B17D0782B1FD0582BBD
S3150000335C05D108B137240AE0013C012C14D9602BA5
S3150000336C17D8402BF6D83A2B34BF302400241B1B1D
S3150000337CDBB29F4203D900FB07300136DAE705239F
S3150000338C82F879300020F0BD10270020F5E70028E0
S3150000339CE2D05724EBE700BF862100206E1B0020ED
S315000033AC094A0023FF21137082F8783082F86530C1
S315000033BC82F8773082F8793082F87A1082F87B308E
S315000033CC024A1360704700BF86210020AC300020F3
S315000033DC034B93F8770093F87B30C01AC0B2704752
S315000033EC862100200021FFF793BF000010B50A4B81
S315000033FC93F87B20024453FA82F292F86520134428
S3150000340C5C78A4F12D0359425941FFF781FF2D2C0D
S3150000341C08BF404210BD00BF8621002030B50C4AC3
S3150000342C92F87B300344C043DBB2C00F39B1D518D8
S3150000343C95F8664095F86550641B241A0C7042FA90
S3150000344C83F393F865301844024B184430BD00BF23
S3150000345C8621002087210020F7B50E460DF10701C5
S3150000346C15461C46FFF7DAFF9DF80730AB420746B8
S3150000347C88BF8DF807501CB19DF807402C1BE4B291
S3150000348C22463046002100F049FE30199DF80720EF
S3150000349C394600F0E7FD9DF8070003B0F0BD38B5DE
S315000034AC08220C460123FFF7D7FF04F10803621E1E
S315000034BC043413F8011D12F8015F1D70A34211703C
S315000034CCF7D138BD38B5014605460120FFF7B4FEE5
S315000034DCD5E901436CB91C46084D236863B12946EE
S315000034EC202006F024FB21460020FFF7A5FE0C3415
S315000034FCF3E71B786E2BEFD038BD00BF3207030005
S3150000350C08B50449202006F012FB2020BDE808402F
S3150000351C0DF01EBDBDFB020038B5FFF7F1FF064DE1
S3150000352C002461190C34631953F80C3C03B938BDEB
S3150000353C0020FFF781FEF4E7C8E402002DE9F84FFE
S3150000354C1F4B204D53F820201F49202006F0EFFA80
S3150000355C2B681BB9BDE8F84FFFF7DEBF1B4FDFF832
S3150000356C74A0FFF7CDFF0026B94697F87B30F4B26E
S3150000357C013B9C4204DB2868BDE8F84FFFF7A2BF6D
S3150000358C47FA86F34C4493F865800023C84494F8B4
S3150000359C662094F86510521A03F1010BD2B2DBB215
S315000035AC934205D30A49202006F0C1FA0136DCE71E
S315000035BC434451465A78202006F0B9FA5B46E6E7B2
S315000035CC701B0020AC300020B8FB020086210020C6
S315000035DC330703001D1903002DE9F74F824C94F8AD
S315000035EC7730002B00F0A380804B1B7813F0010F73
S315000035FC04F101071FD000257D4E14E0631920202D
S3150000360C93F8662093F86530D21A44FA85F3D2B251
S3150000361C93F8651039440DF096FC3146202006F0DF
S3150000362C86FA0135EDB294F87730AB42E6D871499B
S3150000363C202006F07CFA94F877300193DFF8C0E18D
S3150000364C6D4B00269EF800801EF801CF1EF8012C4B
S3150000365C4FF00009ACEB020CB8445FFA8CFC4D46FB
S3150000366C1868002853D00138C24619E02AB9002D33
S3150000367C4BD04FF001090C33F2E71AF8011BA1F1FC
S3150000368C410BBBF1190F98BF2031A2F1410B98BF2A
S3150000369CC9B2BBF1190F9CBF2032D2B28A42EAD111
S315000036ACAAEB0801614510F8012FDFD1002ADED103
S315000036BC1D46524B1D6094F87B30013384F87B30E9
S315000036CCD5E901230136F6B2002A36D01B786E2BCB
S315000036DC32D03F2B24D04FF000094F464FF0070A4B
S315000036EC4FF0040B5FFA89F0811994F877C0AA6839
S315000036FCC9B28C45D35D28D893B117447B782A2B55
S3150000370C1CBF032384F879300AE01D46B3E7B9F1F0
S3150000371C000F01D1002DCCD1022384F8793000257D
S3150000372C94F8790000285CD1686800F02FF903B092
S3150000373CBDE8F04FFFF734BE1346019AB24281D86A
S3150000374C032284F879201D46EAE7732B08D8712BDF
S3150000375C0AD2002B43D0622B30D084F879A016E025
S3150000376CA3F17502022AF8D8752B1ED0762B1FD022
S3150000377C732B20D0722B47F6FF7818BF4FF0FF380B
S3150000378C0121FFF7C5FD404501D984F879B0AB6836
S3150000379C3B4409F101095B782A2B94F879301CBF5C
S315000037AC0137FFB2002B9DD0BAE74FF0FF08E7E7D1
S315000037BC4FF6FF78E4E74FF07F08E1E794F87B30AB
S315000037CC184454FA80F090F8653023445B78222B29
S315000037DCDDD07B2BDBD0052384F87930D7E70323A8
S315000037ECFAE7FFF7ABFEA2E78621002002220020B3
S315000037FC33070300FAFB0200C8E40200AC300020D9
S3150000380CEB2100202DE9F3415E4C5F4F06460D4639
S3150000381C4FF0000866B90DF1070128460DF08CFB38
S3150000382C78B1262800F0A980012384F879304BE082
S3150000383C002D00F0A28016F8013B8DF80730013DF3
S3150000384CEDB23A789DF807303B700D2A01D10A2B60
S3150000385CE0D00D2B0CD0A3F10A0251425141227833
S3150000386C8846042AD6D8DFE802F0051D263C31002E
S3150000387C0121F4E721B1FFF7AFFE4FF00108C9E7CC
S3150000388C202B63D0222B07D10223237094F87820A7
S3150000389C642A5DD10623C8E77B2B01D10323F4E709
S315000038AC0123F2E709B9202BF0D194F87730112BCC
S315000038BC3FD10323B9E7222BF7D00029E6D0052305
S315000038CC84F879304FF0010804232370B8F1000F07
S315000038DCA0D094F8790008B1FFF730FEFFF760FD31
S315000038EC98E77D2B94F87A0003D1FF28DDD00523C9
S315000038FC9BE7602B13D8402B13D8392B8CBF002297
S3150000390C30229A1AD2B20F2A10D8FF280BD002EB0B
S3150000391C0012FF238DF8072084F87A30B6E7572279
S3150000392CEFE73722EDE784F87A2073E7202BDED118
S3150000393C70E70133DBB284F87730234494F87820AF
S3150000394C83F8652000232370002994D1884661E70B
S3150000395C2378012B09D19DF80730A3F141011929D0
S3150000396C9CBF2033DBB28DF80730A3189DF80710E7
S3150000397C5970013284F878204CE7404602B0BDE815
S3150000398CF08100BF862100200322002010B5054BD4
S3150000399C0446187800F074FCA047BDE8104000F00F
S315000039AC76BC00BF142200207FB501A8FDF7B8FB3A
S315000039BC01AA0349042001F0B7F807B05DF804FB2F
S315000039CC2DFF02002DE9F04F18228DB0FF230DEBD1
S315000039DC020000218DF80A3029F0AFFD0DF10B0124
S315000039EC4FF0FF30FFF71AFDFFF7DEFF41F2020240
S315000039FC9D49042001F098F804A8FDF773FE06A96A
S31500003A0C0DF10A00FDF774FE0420984901F0A8F8A0
S31500003A1C042001F075F810B104A800F0F7FF9DF929
S31500003A2C22309DF823209249042001F07DF818F0ED
S31500003A3CA7FA831EDBB2FC2B05462AD88D498E4E7F
S31500003A4C8E4FDFF8A482042001F06EF80124224682
S31500003A5C3146042001F084F803A9E0B218F03AFAD2
S31500003A6C9128024600F09580932800F09280002859
S31500003A7C40F094809DF90C1000919DF80E309DF845
S31500003A8C0D207F49042001F04FF80134E3B2AB421C
S31500003A9CDDD3BDF82040FDF747FC224603467949A5
S31500003AAC042001F05DF80420774901F059F8042050
S31500003ABC01F026F810B106A800F0A8FF73490420FF
S31500003ACC01F032F81DF024F804461DF01BF82246CE
S31500003ADC03466F49042001F027F8FDF723FE6D49D4
S31500003AEC042001F03DF89DF80A20FF2A5BD06A49B4
S31500003AFC042001F035F86549DFF8F081042001F067
S31500003B0C13F8FDF701FE654A65490346042001F0EA
S31500003B1C0BF818F0A7F963490246042001F020F8C7
S31500003B2CFDF7F8FD0446FDF7FBFD224603465E490C
S31500003B3C042000F0F9FFFDF749FF5C49024604201A
S31500003B4C00F0F2FF0025FDF741FFECB2A0422FD8A2
S31500003B5C01225749574C042000F0E6FF002000F0E4
S31500003B6C8FFB554B55490022042000F0DDFF2368DE
S31500003B7C53B11A785249042000F0D6FF23685149F4
S31500003B8C5A78042000F0D0FF00F081FB0DB0BDE8A0
S31500003B9CF08F3946042000F0C7FF76E74146042033
S31500003BAC00F0C2FF71E74849042000F0D9FFA2E7F4
S31500003BBC464B474F03EB04162046D6F80890FEF703
S31500003BCC91F982462046FDF707FF002814BFC3462D
S31500003BDCBB462046FEF786F902F0B4F8002814BF5F
S31500003BEC404638465B46009052463A49DFF800B1EB
S31500003BFC042000F0B5FFB1797388327B0191B1884E
S31500003C0C00910420344900F08FFF002699F8043007
S31500003C1CF4B2A34201D8013595E7D9F800702F48C4
S31500003C2C2F4914235C4307EB040A3B5B9AF90C20DF
S31500003C3C11EA220138BF01460A460420594600F013
S31500003C4C8FFF042000F05CFF38B150463C5BFDF75B
S31500003C5CE1FE0146204602F00FF92249042000F04D
S31500003C6C63FF0136D2E700BFEDFC020008FD02003F
S31500003C7C34FD02000FFD020025FD020049FD020085
S31500003C8C2CFD020054FD020072FD020094DC0200C1
S31500003C9C7BFD02009CFD0200A3320300AFFD020077
S31500003CACB8FD0200C6FD0200DAFD0200E9FD0200C5
S31500003CBC5DFE02001022002069FE020077FE020063
S31500003CCC83FE020095FE0200A7FD02004C30002088
S31500003CDCCCFC0200F4FD020014FE0200E1FC020022
S31500003CECD5FC0200FCFB02004F170300C4FC0200CB
S31500003CFC46FE020008B50020FFF774FBBDE808403D
S31500003D0C80B200F07BBF08B50020FFF76BFBBDE867
S31500003D1C084080B200F086BF70B5074D074E0024F0
S31500003D2C0C34631953F80C2C02B970BD31460420BF
S31500003D3C00F0FAFEF4E700BFC8E402009B2F030074
S31500003D4C05F0E0BB08B50020FFF74CFB054B1A78D5
S31500003D5C10F0FF0F14BF42F0010222F001021A709C
S31500003D6C08BD00BF022200202DE9F84326F0BCFA5C
S31500003D7C104EDFF84C80DFF84C9007460025EBB26E
S31500003D8C56F833400CB9BDE8F88358F82320494659
S31500003D9C012000F0E5FE23782BB90749012000F03D
S31500003DACC3FE0135EBE762680449D21B012000F023
S31500003DBCBBFEF6E710D8020024FF02001E2E0300FD
S31500003DCC101B00201DFF020010B520F043FC0D490E
S31500003DDC0446012000F0C4FE022C0DD0032C0DD09D
S31500003DEC012C0DD10849012000F0BAFE074901202B
S31500003DFCBDE8104000F098BE0549F4E70549F2E726
S31500003E0C0549F0E7AEFE0200CBFE02002D310300A1
S31500003E1CD1FE0200E0FE0200F0FE02002DE9F8439E
S31500003E2C114EDFF854800025FDF7D0FDECB2A04210
S31500003E3C01D8BDE8F8832701204616F80790FDF750
S31500003E4CCBFD0A4B0A49002818BF43464A460120B7
S31500003E5C00F086FEF05DFDF7C2FC0649012000F07D
S31500003E6C63FE0135E0E700BF4C3000207000030014
S31500003E7C12FF0200FCFB02006600030008B50020DE
S31500003E8CFFF7B0FA094B1B681B681978A1F165039B
S31500003E9C59425941C0B2FEF7FFF928B9044901202D
S31500003EACBDE8084000F040BE08BD00BFAC300020A5
S31500003EBCF8FE020049BA89B24840C0F303114140EA
S31500003ECC080380B24840C3B280EA43107047000032
S31500003EDC014B1878704700BF04220020014B187064
S31500003EEC704700BF0422002014F0D6BB38B5A0F1F1
S31500003EFC430305460A2B31D8DFE803F0060A0A12FB
S31500003F0C1230303030301100BDE8384027F09AB806
S31500003F1C27F064F820B127F095F80028FBD138BDBE
S31500003F2C114C20780028FAD10123443D23700DF062
S31500003F3C87FC032D0DD8DFE805F00606090240F6CE
S31500003F4C010026F0A1F900232370E8E740F60200F1
S31500003F5CF7E77A21054804F0D3FBF4E78C210348F4
S31500003F6CBDE8384004F0CCBB052200203CFF020023
S31500003F7C7047704770477047704770477047704777
S31500003F8C0020704770477047704700207047704795
S31500003F9C704700207047704700207047704701201B
S31500003FAC70470120704770477047704770477047DD
S31500003FBC704700002DE9F047204DDFF8A090DFF8A0
S31500003FCCA0A000245FFA84F8404617F0E5FFFF280E
S31500003FDC06460CD122461A49287805F0BDFD2878EC
S31500003FEC01340CF0B5FF142CECD1BDE8F087154B61
S31500003FFC59F82420144947B213EA270338BF53460D
S3150000400C287805F0A9FD002FE9DA14B1B8F1030FF1
S3150000401C08D10E4B0E49287816F0010F18BF194619
S3150000402C05F09AFD0A2CDAD10A4B0B49287816F0C2
S3150000403C010F18BF194605F08FFDD0E76D1B002048
S3150000404C79000300FCFB0200A10003003C00030006
S3150000405C52000300640003006E000300E8FF020038
S3150000406C8A0503008842F0B54FEA92031AD89BB230
S3150000407C9E00871904460D4604370434BC4205F1EC
S3150000408C04053AD1C3EB8333314402EB8303013E7F
S3150000409C304411FA83F3994220D011F8012B00F821
S315000040AC012FF8E7541E20449BB22144A0EB830653
S315000040BC04460D46043E043CB442A5F104050ED15B
S315000040CC6FF003045C43C3EB833302EB830321449D
S315000040DC9BB201342044CB1A994209D1F0BD2F79F9
S315000040EC2771EF78E770AF78A7706F786770E2E7A3
S315000040FC11F8012900F8012DEEE715F804CC04F8A7
S3150000410C04CC15F803CC04F803CC15F802CC04F84F
S3150000411C02CC15F801CC04F801CCAEE7024490426F
S3150000412C00D1704700F8011BF9E710B501380139C9
S3150000413C0AB9104606E010F8014F11F8013F9C42EF
S3150000414C01D0E01A10BD013A92B2F1E70A4B10B554
S3150000415C00241C70FDF7E8F8084B21461880522203
S3150000416C0748FFF7DBFF074B07481C8021460C224C
S3150000417CBDE81040FFF7D2BF69220020EE300020C8
S3150000418CF0300020E0300020E230002007490B8898
S3150000419C512B9FBF064AD05401339BB29DBF0B8057
S315000041AC03F1FF3398180020704700BFE030002061
S315000041BCF030002038B50546C0B2FFF7E7FF0446DD
S315000041CC280AFFF7E3FF14B1002808BF0024204695
S315000041DC38BD000070B50A4D2B885A18512A0C466A
S315000041EC0CDC084E0A460146F018FFF73BFF288800
S315000041FC204480B22880001B304470BD0020FCE7B0
S3150000420CE0300020F03000201944914208B509DC5A
S3150000421C0144002063B111F8012D013B02EB002093
S3150000422CDBB2F7E702201A46024900F07DFC0020BB
S3150000423C08BD00BF960103000423FFF7E5BF08B5D0
S3150000424C0223FFF7E1FF80B208BD0078FF2808BF04
S3150000425C0020704708B502220021FFF7F0FF4FF649
S3150000426CFF73984208BF002008BD0000024B034AAA
S3150000427C1A600020704700BF10220020A1E0020047
S3150000428C002814BF702000207047002070470020C3
S3150000429C70477047014B1878704700BF4C300020B0
S315000042AC08B5FDF75DFDFF280CBFFF20002008BDFB
S315000042BC08B5FFF7F5FFFF280CBFA320002008BDAB
S315000042CC0023037070470078003018BF0120704738
S315000042DCFCF724BAFCF72FBA10B5182200210446B5
S315000042ECFFF71CFF2046FEF78FFC0020FFF77AF83D
S315000042FCE0720120FFF77AF8A0720220FFF772F83D
S3150000430C2081FFF765F8032808D90320FFF76AF820
S3150000431CE37A03F01F0343EA4010E07210BD00007D
S3150000432C7FB518220021684629F007F96846FFF781
S3150000433CD3FF6846FCF7D2FE044A0549034604201F
S3150000434C00F0F2FB07B05DF804FB00BF8F340300EE
S3150000435C5E02030010B50020FFF744F8041C4FF072
S3150000436C010018BF0124FFF73DF80849A2220028D6
S3150000437C18BF0146204619F09DFA054A0549034621
S3150000438CBDE81040042000F0CFBB00BF00F8FF07CB
S3150000439CF4F402005E02030070B50020FFF722F869
S315000043AC04460120FFF71EF805460220FFF71AF80F
S315000043BCE4B2C2B2201C294618BF012019F0D3FA68
S315000043CC034A04490346BDE87040042000F0ACBB28
S315000043DCAA0203005E0203000149042000F0A4BBFC
S315000043ECFE01030008B50C490020FFF758F80A48EF
S315000043FCFEF75FFC0420094900F0B2FB042000F034
S3150000440C7FFB10B1044800F001FB05490420BDE810
S3150000441C084000F089BB00BF5F220020F0010300BA
S3150000442CFCFB020010B51AF041FD044A0449034690
S3150000443CBDE81040042000F077BB00BFCAF40200B0
S3150000444C5E02030010B50020FEF7CCFF00210446E7
S3150000445C4FF0FF30FEF7E2FF0178A1F162035942FB
S3150000446CE0B25941BDE81040FCF7EABB08B5FEF7CF
S3150000447C22FC03490246BDE80840012000F054BB6B
S3150000448CAD01030008B5FEF7B5FB03490246BDE8CE
S3150000449C0840012000F048BBC101030010B5002004
S315000044ACFEF7A0FF0121C4B2A1400023FE224FF665
S315000044BCFF701FF029FD2246034603490420BDE880
S315000044CC104000F031BB00BFD301030007B502A8B2
S315000044DC032320F8043D19F0FFFE0449024604208C
S315000044EC00F022FB03B05DF804FB00BF42020300A0
S315000044FC08B50020FEF776FFC0B228B104490120AA
S3150000450CBDE8084000F010BB024B187008BD00BF98
S3150000451CBF0203001422002007B56846FDF7E2F837
S3150000452CFCF702FF08490246012000F019FB684619
S3150000453C00F06CFAFCF7FAFE04490246012000F082
S3150000454CF3FA03B05DF804FB190203003202030010
S3150000455C73B50020FEF746FFC4B20120FEF742FFFA
S3150000456CC5B20220FEF742FF46B2FEF731FF032822
S3150000457C12D90320FEF736FFC0B2009033462A4606
S3150000458C2146012021F036FD40B90949012002B02F
S3150000459CBDE8704000F0C8BA0020EEE70090054B6D
S315000045AC054A0649012000F0BFFA02B070BD00BFF3
S315000045BC660203006E020300DAF4020082020300B4
S315000045CC07B5012021F018FD034638B9084A0949F8
S315000045DC012003B05DF804EB00F0A6BA0090044B82
S315000045EC054A0649012000F09FFA03B05DF804FB6A
S315000045FC6E020300970203002AFA020082020300ED
S3150000460C037813F0050F37B504460CD04388062BF8
S3150000461C14D1826883885268144912780092042057
S3150000462C134A00F081FA2378012B1DD0104A114948
S3150000463C042003B0BDE8304000F076BA2BB982886E
S3150000464C0D49042000F070FAEDE7012BEBD18568DB
S3150000465C0A49042000F084FA284600F0D7F90849E4
S3150000466C042000F061FADEE703B030BDEC02030073
S3150000467C8FF902003C030300080303002403030024
S3150000468CFCFB0200094B1B681B681B78652B084B4F
S3150000469C0CBF012200221A701978064A064B042018
S315000046AC002908BF1A46054900F03EBAAC30002076
S315000046BC6C1B002079F4020071F402006F040300F5
S315000046CCFEF7EEBA37B50020FEF78CFE0546012044
S315000046DCFEF788FE054B1C88054B009382B201231E
S315000046ECA9B2204600F0F5FF03B030BD241C002013
S315000046FC0D4600002DE9F04F384D394FDFF8F480A8
S3150000470CDFF8F4900FCD91B00BAC0FC42B68354984
S3150000471C2360042000F008FA00263446FCF7F8FF64
S3150000472CF5B2A8420AD8FCF7F3FF224603462E49F7
S3150000473C042000F0F9F911B0BDE8F08F07A928465E
S3150000474C25F0E6F90246002842D19DF81C30032BD1
S3150000475C84BF04238DF81C309DF81C30002B35D0FB
S3150000476C2A464146042000F0FBF99DF81C3010AA9D
S3150000477C02EB8303494653F8142C042000F0F0F99D
S3150000478C9DF82030BDF81E209DF829A09DF81DB07F
S3150000479C05932846049225F0B3F9049A059B0290DA
S315000047AC0192009304205B4652461049013400F0F6
S315000047BCD7F90420E4B200F0A3F918B10DF12100E9
S315000047CC00F024F90A49042000F0AEF90136A5E7F9
S315000047DC3946042000F0A8F9F8E700BFD802030018
S315000047EC9C0303004E030300BC0303007B0303007E
S315000047FCFCFB020027FD02009B2F030025F080BB6B
S3150000480C08B50020FEF7EEFDBDE80840C0B2FCF787
S3150000481CC5BD0000084B1B681B685B78652B02D175
S3150000482C002001F0B5BB6E2B01D10120F9E7662BF8
S3150000483C01D10220F5E77047AC300020054B1B6810
S3150000484C1B685B78A3F1660253425341024A13700C
S3150000485C704700BFAC3000204C1C002010B5002067
S3150000486C86B0FEF7BFFD694604460120FEF717FE2B
S3150000487C0123102202A90220FEF7EEFDE1B202ABE3
S3150000488C6A46002025F08CFD0446042000F038F919
S3150000489C18B121460448FCF7B5F90449042000F088
S315000048AC43F906B010BD00BF62040300FCFB020016
S315000048BC10B58CB00023122207A90220FEF7CCFDFE
S315000048CC03AA014607A8FCF78FFF044688B1BD284A
S315000048DC04D11449042000F027F908E0022801D17C
S315000048EC1149F7E702461149042000F01DF90CB0F6
S315000048FC10BD01A90120FEF7D2FD2046FEF772FD80
S3150000490C03ABC1B201AA204625F04AFD0446042099
S3150000491C00F0F6F818B121460548FCF773F905497D
S3150000492CD8E700BFE50303000804030043040300B3
S3150000493C62040300FCFB02007FB50020FEF752FD6B
S3150000494C04460220FEF74EFDC6B23046FFF7B0FC19
S3150000495CE4B20546E8B901208DF80000FEF742FDE9
S3150000496CADF8020003208DF80160FEF73BFD0DF15A
S3150000497C05018DF804000420FEF791FD0EF0E3F816
S3150000498C69468DF80D00204625F044F90546FFF7DB
S3150000499C7EFC2B4622460349042000F0C5F804B0E1
S315000049AC70BD00BFD3030300F8B506460C4615468A
S315000049BC1F4600F0A5F818B1013C2544AC4200D1C5
S315000049CCF8BD14F8012F3946304600F0C9F8F5E762
S315000049DC30B4044D044C002B14BF2B46234630BC7C
S315000049ECFFF7E2BF97040300440F030070B50546BA
S315000049FC08460C46FFF729FC611C82B2024B28467E
S31500004A0CBDE87040FFF7D0BF1D19030000B5024684
S31500004A1C0C49C3790888117889B0069151780591AB
S31500004A2C91780491D1780391117902915179019180
S31500004A3C9279009204493E2200F092F809B05DF892
S31500004A4C04FB00BF162200209B0403002DE9F0474F
S31500004A5C104EDFF850A0104F0546884691460024AC
S31500004A6CAC4201D1BDE8F08708EBC401308853464F
S31500004A7C0822FFF799FF01343088B9F1000F07D1EE
S31500004A8C064AA54208BF3A46054900F069F8E7E729
S31500004A9C3A46F9E716220020FAFB0200FCFB02005C
S31500004AAC9A2F030097040300014600220220FFF709
S31500004ABCCDBF00002DE9F0410E4C0646208800F0D3
S31500004ACC1FF8A8B10C4FDFF834800025F3070AD580
S31500004ADC18B94146208800F043F820882A46394602
S31500004AEC00F03EF8002001351B2D4FEA5606EDD19D
S31500004AFCBDE8F08116220020062C03002ADC0200F9
S31500004B0C4FF6FF73984208D0030A08D1054B1B7861
S31500004B1C034214BF0120002070470120704700207B
S31500004B2C704700BF261C00200EB417B505AA044614
S31500004B3C52F8041B0192FFF7E3FF40B1202005F069
S31500004B4C1EF80549202004F0F2FF044B1C8003B02C
S31500004B5CBDE8104003B07047FAFB02001622002095
S31500004B6C0EB417B505AA044652F8041B0192FFF7BA
S31500004B7CC7FF20B1202005F002F8034B1C8003B0C0
S31500004B8CBDE8104003B0704716220020F7B50F4F52
S31500004B9C0F4E104D00240120A04080B257F824205F
S31500004BACFFF7AEFF002814BF304628461346009088
S31500004BBC22460949202004F0CFFF013420200CF0B6
S31500004BCCC7F9042CE7D103B0F0BD00BFB004030055
S31500004BDCC4040300C8040300CB0403000122FF2114
S31500004BEC0148FFF79BBA00BF261C002001220021BA
S31500004BFC0148FFF793BA00BF261C0020012243018F
S31500004C0C00F0070002FA00F003F47F4303449BB262
S31500004C1C1A0A01BF02490A7813430B70704700BF8A
S31500004C2C261C00200122430100F0070002FA00F0C6
S31500004C3C03F47F4303449BB21A0A01BF02490A7864
S31500004C4C22EA03030B707047261C002013B5036879
S31500004C5C0446587901F076F888B923685A88032AED
S31500004C6C0DD0E17C5B790120CDE900210849094A88
S31500004C7CFFF75AFF0121204601F081FA05E0204694
S31500004C8CFDF738FF01460028F5D1012002B010BD12
S31500004C9C0505030071F402002DE9F04F8BB0C27CC0
S31500004CAC0592427D03688668B0F80CB090F81490B3
S31500004CBC5F88002A14BF8022402205465879069246
S31500004CCC01F040F8C0B9059B052B04D8059A2D2395
S31500004CDCD340DB0710D4032F0ED0AF490120FFF7CA
S31500004CEC23FFAE49059BAE4A0220FFF71DFF0121AB
S31500004CFC284601F044FA4BE1EB7B1BB12A8A002AC9
S31500004D0C00F04282A74A00211180697D0029904655
S31500004D1C14BF002008200BB140F00400FFF736FA50
S31500004D2CEB7B13B1288AFFF745FAA87CFFF72EFA1E
S31500004D3C059B1FFA89F4162B00F22082DFE813F08C
S31500004D4C17003A015B00480075015B0022017E01E9
S31500004D5C3601870190019901F300AF011E021E0274
S31500004D6C1E02C501EE01C5010602F300AF010120CA
S31500004D7CFFF70CFA631C5B4502DB01F0B3F907E1A4
S31500004D8C5A4621463046FFF75AFA2B68814658791F
S31500004D9CB8F80030C3F152039BB201932B8A0093EF
S31500004DAC4A46069B3946FCF7ABFD70B92B68587919
S31500004DBCB8F80030C3F152039BB201932B8A0093CF
S31500004DCC4A46069B3946FDF74BFDA21C94B2D1E729
S31500004DDC0420FFF7DBF94FF00009A31C5B4520DB31
S31500004DECB9F1000FC9D1EB7B2C7D002B6D4B0CBFA1
S31500004DFC022204221A800420FFF7C8F94FF0000A99
S31500004E0CD04604F10309CB454DDC059B052B00F080
S31500004E1CBF80B8F1000FB0D1BAF1000F7FD180215D
S31500004E2C66E75A4621463046FFF709FA33190790CA
S31500004E3C93F802A05046FCF7D9FD68B3E01C304449
S31500004E4CFFF703FA01305FFA80F85046FCF7CEFD07
S31500004E5C28B108EB0403ABEB0303032B21D42B681B
S31500004E6C5879CDF808A0E31C334401932B8A0093A0
S31500004E7C3946DDE90632FDF738FC40B109F1010986
S31500004E8CFFF784F907985FFA89F9FFF793F908F1A8
S31500004E9C0302224494B2A0E75046FCF743FD804639
S31500004EACD3E78020EAE75A4621463046FFF7C7F992
S31500004EBC331908909B7807931846FCF797FD06EB79
S31500004ECC09030993E0B11846FFF7BFF901305FFA01
S31500004EDC80F92B68089A5879079B0293099B0193D2
S31500004EEC2B8A00933946069BFDF7B7FB68B90AF186
S31500004EFC01035FFA83FA09F10302224494B280E7B4
S31500004F0C0798FCF70FFD8146E3E708F101035FFA0A
S31500004F1C83F8FFF73BF90898FFF74CF9EBE74046A7
S31500004F2CFFF734F929E7059B0C2B14BF16200D202F
S31500004F3CFFF72CF9214630465A46FFF780F9059BB8
S31500004F4C4E44152B8246B47802D1132C28BF132459
S31500004F5C0020B8F80060FFF719F92B685879059B03
S31500004F6CA3F1150CDCF1000343EB0C03CDE9014373
S31500004F7C2B8A00935246069B3946FDF72FFA0A4BAD
S31500004F8C9855FAE628460BF0AFFD002800F0F6809F
S31500004F9C01200BB0BDE8F08FCCFC02002F050300FE
S31500004FAC71F40200E0300020F030002028460BF0AF
S31500004FBCA5FBEAE70A2F06EB09082BD1DFF8D4A1EB
S31500004FCC9AF8003033B3EB7B23BBABEB0909B9F191
S31500004FDC080F1FD15A4621463046FFF730F9C8B99B
S31500004FEC98F80290B9F1000F14D198F80330E22B1F
S31500004FFC10D1211D5A4689B23046FFF71DF900F033
S3150000500CD9FD00F0D9FD614902460220FFF78CFD5F
S3150000501C8AF80090ABEB040292B241463846FCF794
S3150000502C7CFC0028B4D1002162E6ABEB040292B200
S3150000503C06EB09013846FDF743FEF2E7ABEB04023B
S3150000504C92B206EB09013846FDF7C4FDE9E7ABEB76
S3150000505C040292B206EB09013846FDF71EFEE0E7A4
S3150000506CABEB040292B206EB09013846FCF757FC8F
S3150000507CD7E701342B6816F8098058792B8AA4B225
S3150000508C4246345D0193069B009339462346FDF751
S3150000509C2DF8224641463846FDF79EFD78E7059BDE
S315000050AC16F80910A3F11600621C434292B2434152
S315000050BCABEB020B0031009332441FFA8BF318BF93
S315000050CC01213846FDF78AFDABE7059B16F809A0CA
S315000050DC4E44112B96F801901BD11220FFF756F86F
S315000050EC0020B8F800402A4ECDF80480C4F15102D5
S315000050FC92B2631C00923344CDE902A93A46294682
S3150000510CFDF71AF9B8F8003030550133A8F800301D
S3150000511C33E61420FFF73AF80120E2E716F80920E7
S3150000512C0134A4B2003206EB0403ABEB040418BF43
S3150000513C0122A4B20021C8B2844201F10101FAD8BD
S3150000514C298A00943846FDF74DFD6AE716F80920C2
S3150000515C0134A4B2003206EB0403ABEB040418BF13
S3150000516C0122A4B20021C8B2844201F10101FAD88D
S3150000517C298A00943846FDF733FD52E7EB7B002B6A
S3150000518C0CBF82218421B3E58421B1E54B050300D4
S3150000519CF03000201822002082B2074B42B11A8050
S315000051AC000C064B0ABF4FF6CE2218801A807047A9
S315000051BC4BF6EF62F3E700BF281C00202A1C0020E8
S315000051CC094B1888020448BF80F0620042001A801E
S315000051DC064A1388190444BF83F4805383F00B03E7
S315000051EC5900118058407047281C00202A1C0020AA
S315000051FC034B1870034B1970034B00221A7070473F
S3150000520C1A220020192200201B2200200C4B13B559
S3150000521C1B681B681B78672B04D101A823F0BEFD05
S3150000522C02B010BD0020FEF7DDF804460120FEF7A3
S3150000523CD9F801A9ADF80400204623F07FFDEFE76D
S3150000524CAC30002038B516F00DFE30B10C4A0D49C5
S3150000525C0120BDE83840FFF767BC0B4B0B4C1B68B5
S3150000526C0B491B681D7810226C2D18BF2146012393
S3150000527CFEF7F2F807490220BDE83840FFF754BCA8
S3150000528C1BDC020063050300AC3000202C1C002044
S3150000529C3C1C0020790503002DE9F04707468AB02F
S315000052ACA0B9FCF733FA06462649DFF8A080DFF8EA
S315000052BCA090DFF8A0A00120FFF736FC00252C46B5
S315000052CCB44205D328460AB0BDE8F0870126EBE7C1
S315000052DC69462FB1012022F095FE60B3FE2403E04F
S315000052EC204625F059F810B10134E4B2E8E722461D
S315000052FC51460120FFF734FC0120FFF701FC18B1E1
S3150000530C0DF11D00FFF782FB069A41460120FFF7BF
S3150000531C27FCBDF8003013F0100F14BF79226E2253
S3150000532C49460120FFF71CFC01350DF10300FFF780
S3150000533CBBFBEDB2D8E704490120FFF711FCFE24B4
S3150000534CDAE700BFDB0603002E0703001007030095
S3150000535C1807030026070300F0B51E491E4D1F4E05
S3150000536C1F4F89B00120FFF7DFFB6946002024F0B0
S3150000537CC3F8002410B1204609B0F0BD0120224626
S3150000538C2946FFF7EDFB0120FFF7BAFB10B1684683
S3150000539CFFF73CFB069A31460120FFF7E1FBBDF80F
S315000053AC1E2039460120FFF7DBFBBDF81C200D49FA
S315000053BC0120FFF7D5FB013402A8FFF775FBE4B219
S315000053CC09490120FFF7B0FB6946204624F094F802
S315000053DCD0E700BF350703002607030010070300BC
S315000053EC7107030078070300FCFB020000B58BB0C5
S315000053FC6946012022F006FE18B905980BB05DF837
S3150000540C04FB4FF0FF30F9E710B58CB002A823F07F
S3150000541CC5FC38B9BDF80830DB0703D42F49012089
S3150000542CFFF782FB02A9032022F0ECFD20B1282213
S3150000543CFF2102A8FEF772FE079B294A2949012083
S3150000544CFFF772FB9DF82430254A27490120FFF708
S3150000545C6BFB234A25490120FFF782FB0DF10B005C
S3150000546CFFF722FBFFF7C2FF214A1E490346012024
S3150000547CFFF75AFB1E4A1F490120FFF755FB012077
S3150000548CFFF70AFF1A4A1C490120FFF74DFB0020C3
S3150000549CFFF702FF0446FCF739F922460346174983
S315000054AC0120FFF741FB164A13490120FFF73CFB8D
S315000054BCFFF752FF1349144B012898BF0B461349AB
S315000054CCCDE900030246124B4FF0010088BF0B4694
S315000054DC1049FFF729FB0CB010BD00BF22060300D4
S315000054EC5A06030062060300710603008B0B0300C9
S315000054FC183A03008206030088060300910603008F
S3150000550CA5060300FCFB02003AFF02001E06030080
S3150000551C07F60200B306030010B50020FDF762FF84
S3150000552C0446003018BF012019F0B8FA054A064B9C
S3150000553C0649002C08BF1A460120BDE81040FFF7AB
S3150000554CF3BA00BF81050300860503008F0503002F
S3150000555C08B50020FDF746FF044B0549188082B2BA
S3150000556CBDE808400120FFF7DFBA00BF402000204D
S3150000557CD005030008B50020FDF734FF034B187067
S3150000558C0120FDF72FFF024B187008BD0C220020DE
S3150000559C101C002038B5012505704FF6FB75A94285
S315000055AC98BF6FEA43439DF81040847298BF6FEA28
S315000055BC534303814260064BC07A082103EBC000BB
S315000055CCFEF788FE0420BDE8384008F01FBC00BF7B
S315000055DC443100200948037873B9094A1946D37235
S315000055EC0133042B1173117051601181917202F108
S315000055FC1002F4D101230370704700BF5C22002017
S3150000560C1C22002038B5FFF7E5FF094D00240DF0EC
S3150000561C9AFA204400012B5C2BB90DF094FA204425
S3150000562C05EB001038BD0134042CF0D10020F9E74D
S3150000563C1C22002030B5054685B0007BFEF720FE07
