:10000000E01A0020BD530100A99B0000AD9B000039
:10001000A70A02020002000004180FAC5065B001EC
:1000200000000000000000000000000000000000D0
:100030000000000024470300000000000000000052
:100040000000000000000000FFFFFFFFFFFFFFFFB8
:10005000FFFFFFFFFFFFFFFFFFFFFFFFFFFFFFFFB0
:1000600000E00F000100000000001000FFFFFFFF94
:10007000FFFFFFFF1C000000000000000000000068
:10008000C84B0020C83F0020C83F0020C83F0020C8
:10009000E01A0020187A0300B0E40200801100206A
:0C00A0005C11002000001000C84B002084
:10020000E01A0020BD530100A99B0000AD9B000037
:10021000B59B0000B19B0000B99B0000B9530100E1
:10022000B9530100B9530100B9530100B95301009A
:10023000BD9B0000B9530100B9530100B95301003F
:100240004DB500009DB90100A99E0000309C000042
:1002500061B4010009BA0100A9B90100C1B90100E6
:10026000A1B9010081AC000055AD000071CB0000C8
:10027000ED470100309C0000309C0000CD7E000066
:10028000309C0000309C000079AD0000309C0000E4
:10029000309C0000309C0000309C0000309C00002E
:1002A000309C0000309C0000309C0000309C00001E
:1002B0000DBA0100A5B90100D1B200004DBA01008C
:1002C000309C0000A1730100309C0000309C0000B5
:1002D000309C0000309C0000309C0000309C0000EE
:1002E000309C0000309C0000309C0000309C0000DE
:1002F000309C0000309C0000309C0000309C0000CE
:0C030000309C0000309C0000B95301004C
:10030C00F8B500BFF8BC08BC9E467047F8B500BFF6
:10031C00F8BC08BC9E46704710B5054C237833B921
:10032C00044B13B10448AFF300800123237010BDBC
:10033C0084210020000000006C73030008B5034BFF
:10034C001BB103490348AFF3008008BD0000000057
:10035C00882100206C730300154B002B08BF134B36
:10036C009D46A3F5803A00218B460F461348144A4C
:10037C00121A2EF07CF80F4B002B00D098470E4B26
:10038C00002B00D098470020002104000D000D48E0
:10039C00002802D00C48AFF300802EF039F8200072
:1003AC00290014F0BDFC2EF01FF800BF000008005F
:1003BC00E01A002000000000000000008421002052
:1003CC00C83F00200000000000000000912808B584
:1003DC0004D1002009F056FC002008BD9028FBD168
:1003EC00002009F03DFCF7E770477047064B10B54D
:1003FC0000241C7000F080FE022804D12046BDE8C9
:10040C00104009F02DBC10BD7832002070B50646A6
:10041C00104614460D4604F017F80023337020469E
:10042C00A847BDE8704003F0FEBF0000012202495E
:10043C000248FFF7EBBF00BFF1000100A83200201B
:10044C00012202490248FFF7E1BF00BFB91C0100BD
:10045C00B0320020012202490248FFF7D7BF00BF8B
:10046C007131010090320020012202490248FFF74D
:10047C00CDBF00BF05FE00008032002002220249E1
:10048C000248FFF7C3BF00BFF1000100A0320020FB
:10049C00012202490248FFF7B9BF00BFFD3101003C
:1004AC00BC320020022202490248FFF7AFBF00BF56
:1004BC00FD310100C432002008B5002003F0ACFF70
:1004CC00044B00221A700EF083F9BDE8084003F0CB
:1004DC00AABF00BF8832002008B5002003F09CFFA3
:1004EC00044B00221A700EF0BDFCBDE8084003F06E
:1004FC009ABF00BF9832002008B501201FF03AFACD
:10050C0002481FF0ADF9024B187008BDF4E602006A
:10051C00B832002008B503F06BFD012805D0034B61
:10052C001878BDE808401FF07FB908BDB83200202C
:10053C0010B50C1E03D11FF005F9002010BD02DB15
:10054C001FF00CF9F9E70220F8E7B1F5000F02D221
:10055C000902FFF7EDBF0220704700002DE9F041C2
:10056C009846154B154F1B8800264FF00C0CF4B217
:10057C009C4202D30220BDE8F0810CFB04F57C19EF
:10058C007D5D854205D165888D4202D125799542E4
:10059C0001D00136EBE701F09BFA0028EAD0414686
:1005AC00A068FFF7C5FF0028E4D19DF818306371EF
:1005BC009DF81C30A371DEE7241B0020E81A0020F4
:1005CC0013B59DF81040CDE9003413460122FFF716
:1005DC00C5FF02B010BD13B59DF81040CDE9003435
:1005EC0013460022FFF7BAFF02B010BD07B5002377
:1005FC000093FFF7F0FF03B05DF804FB0E4BF0B572
:10060C001F880E4E00254FF00C0CEBB2BB4201D3F1
:10061C000220F0BD0CFB03F3F418F35C834205D10C
:10062C0063888B4202D12379934201D00135ECE7E8
:10063C00A36800201870ECE7241B0020E81A0020A7
:10064C000122FFF7DBBF0022FFF7D8BF2DE9F04FE7
:10065C001E4693B0FF23022E8046894614461C9DED
:10066C009DF874A08DF81E3040F2BA802B785A0792
:10067C002BD5042E40F2B48095F804B05D4A0023CB
:10068C0002EBC301DFB20979FF2907D001330A2B32
:10069C00F6D1209B002B40F0A780FF27002308AA4F
:1006AC000DF11F0120798DF81F3002F01EFB78B17F
:1006BC00BDF82C3023809DF81F0003F0ADFE8DF8A3
:1006CC001D00C8B113B0BDE8F08F95F802B0D5E7A6
:1006DC00207901F019FAFF28059000F08380207929
:1006EC0003F0B2FE8DF81D000028EBD1059B4248AB
:1006FC0000EB031043882380618823884FF6FF7238
:10070C00B8F1000F08BF4A46CDE9001258465246D0
:10071C00002105F013FE18B1E38843F02003E380B9
:10072C00209B0F950DF11D010DA8CDE90D34ADF8F1
:10073C004090ADF842608DF844808DF845A002F0F1
:10074C0049FB10B19DF81D00BCE7284605F014FDCF
:10075C00A01D05F0FFFC22464946404605F010FF5F
:10076C0080B2B0422CD39DF87C300393BDF8783026
:10077C0002930DF11E03CDE900532246F3B2494614
:10078C00404600F046FE8DF81D00209A9DF81D3065
:10079C00D2B15BBB9DF81E20FF2A08D0092F06D8CA
:1007AC00144B03EBC7010A71209A43F837209DF8CC
:1007BC001D3013B911200EF07FF903F034FEC1E7A0
:1007CC0074238DF81D30E0E7BA2BF0D1E388DB06FB
:1007DC00EDD5002301208DF81D3003F00FFCE6E76A
:1007EC0001206FE7A3206DE7B4206BE7BA2BEDD0A7
:1007FC00E3E700BFA0210020903300200023054A2E
:10080C0010B51946FF24D018047199500833502B99
:10081C00F9D110BDA021002010B586B00881089C2C
:10082C0004940024CDE902440124CDE9003413469C
:10083C000A4601460320FFF709FF06B010BD13B5A9
:10084C0000240094FFF7E8FF02B010BD2DE9FF4132
:10085C000F469046054688B381B37AB300266946A5
:10086C00F0B22CF045FE044630B99DF80030032B55
:10087C0006D001360A2EF2D1204604B0BDE8F08134
:10088C009DF801202B799A42F3D1BDF802206B8898
:10089C009A42EED19DF806309DF8050000EB03203E
:1008AC0080B29DF804306B71288143463A46294644
:1008BC00FFF7C5FF0028DCD00446DDE70224DBE7A8
:1008CC0010B586B0089C04940024CDE902440124A0
:1008DC00CDE9003413460A4601460620FFF7B6FE62
:1008EC0006B010BD13B500240094FFF7E9FF02B069
:1008FC0010BDF0B502288BB005460E4614461F46B7
:10090C000AD106A9F0B22CF0F3FD98B99DF8193074
:10091C0023719DF81C306371119B04930022109B72
:10092C000192CDE90222009322463B4631462846ED
:10093C00FFF78CFE0BB0F0BD13B500240194049CA2
:10094C000094FFF7D6FF02B010BD2DE9F043064628
:10095C008BB00F4690469946002506A9E8B22CF0BC
:10096C00C7FD044630B99DF81830012B06D001356F
:10097C000A2DF2D120460BB0BDE8F0839DF819206A
:10098C0033799A42F3D1BDF81A2073889A42EED18A
:10099C009DF81C307371CDE90309CDE90100CDF848
:1009AC0000803B463246A9B20220FFF74FFE0028DA
:1009BC00DDD00446DEE7000007B5094A034610887F
:1009CC0031B9084A084903B05DF804EB04F09EB94C
:1009DC000091064A064904F099F903B05DF804FB4E
:1009EC00922200202DF702000FEE02004F2D030083
:1009FC0016EE02007FB505460E461FF045FF2A464F
:100A0C00044603460C49042004F064F98CB986B101
:100A1C0001238DF80E3003230093224603AB3621BD
:100A2C004FF6FC708DF80C408DF80D5007F0FAF96C
:100A3C000446204604B070BDF8ED0200FF2810B546
:100A4C000C4604D10420044904F044F9FE2021464C
:100A5C00BDE81040FFF7CEBFD1EF0200F8B51F463E
:100A6C000B8806460D461446002B63D14A881104A8
:100A7C0048BF63783049082004F02CF96B8848F2A1
:100A8C000402934232D00FD848F2010293423ED076
:100A9C0048F20202934242D0132B0ED1A278637813
:100AAC00264903EB022223E048F20602934223D0AC
:100ABC0032D348F22002934226D03B4622462946A6
:100ACC00304600F0EFFD40B96A8848F221039A42A3
:100ADC0003D16178304602F017F96B88B3F5004FFB
:100AEC0002D908200EF008F8012024E0144A154918
:100AFC00082004F0EFF8E0E7134A1249082004F04C
:100B0C0005F922791149F3E762781149F0E71149A7
:100B1C00082004F0DFF8D0E722790F49E8E70F4A04
:100B2C000849082004F0F2F8A27863780C4903EB2A
:100B3C000222DDE70020F8BD23EE020099EE020050
:100B4C0048EE02004FEE020060EE020066EE02007C
:100B5C0074EE0200B0EE0200CAEE0200ECEE0200EF
:100B6C00F1EE02002DE9F04788B00C46924699460A
:100B7C00BDF84050119E804624F06EFD628823889B
:100B8C001D49009207462A46022004F0A3F88DF86E
:100B9C000880CDE90346ADF81450ADF816708DF809
:100BAC0018A08DF8199000F0A9FA8DF81A0000F031
:100BBC00A7FA8DF81B0014F02CFB8DF81C0002A872
:100BCC0002F006F9A8B92B4632462146384604F005
:100BDC0009FF70B92B46324621463846FFF73EFFD7
:100BEC0038B9CDE900702B4632464146204605F017
:100BFC00CBFB08B0BDE8F08739ED02002DE9F04FD2
:100C0C0085B0804689461446BDF838600F9D9DF826
:100C1C0040B01F46002B2CD0434A4449042004F01A
:100C2C0075F82388002B70D040F2091293426ED0D5
:100C3C003F4A4049B3F5827F18BF0A46618800914C
:100C4C0001963D49042004F061F823886BB1022E13
:100C5C000BD92B7839493A4A13F0010F18BF0A46C1
:100C6C00AB783849042004F051F83749042004F0DB
:100C7C0031F8364A0023114602EBC300007958457F
:100C8C0047D152F833A0002301EBC3021079584529
:100C9C0045D1FF201071002241F8332047B9238839
:100CAC0033B9B4F90230002B02DB08200DF004FF3D
:100CBC0001200DF021FF9DB12878C30710D510F04D
:100CCC00040004D032460121284603F066FBCDE92E
:100CDC0001700095334622464946404601F0EBF937
:100CEC00BAF1000F06D0CDE90057334622464946EB
:100CFC004046D0473346224649464046CDE90E573A
:100D0C0005B0BDE8F04F01F0FBBF114A96E7114A60
:100D1C0094E701330A2BAFD14FF0000AB3E701334C
:100D2C000A2BB1D1BAE700BF7DED020085ED0200C0
:100D3C0073ED0200D2ED02008FED0200AF24030030
:100D4C0076ED0200BEED0200EE110300A0210020A2
:100D5C006CED020070ED0200962813B5044644D0E9
:100D6C003DD891284CD094283FD0902851D100F0F8
:100D7C00BFF92C4B00902C4A2C49042003F0AAFFFD
:100D8C00BC2C38D12A49042003F0A4FF02F02AF825
:100D9C0002F029F802F027F820460DF0A7FD2046B6
:100DAC0012F0FCFB20460FF0FBFD204612F012FD6A
:100DBC00204610F0EFFE204614F0CAF8204610F042
:100DCC00F7F920460FF0ECF82046FFF7FFFA30B3A6
:100DDC001849042002B0BDE8104003F07BBFAF28D7
:100DEC0007D8AB280AD2982813D1134B0E4A1349B3
:100DFC0009E0BC28BAE726F035FECBE79128F4D100
:100E0C00084B094A0E49042003F064FF05F0EBF887
:100E1C00C2E722460B49022003F05CFFBCE702B09C
:100E2C0010BD00BF02EF02000BEF020012EF020038
:100E3C001FEF02006FEF020046EF02004EEF0200C0
:100E4C003DEF020057EF020013B50F4C002003F0EA
:100E5C00E3FA23686BB101A800F038FB48B92368AA
:100E6C001A789DF804309A4203D0012A07D1022B3C
:100E7C0005D1032301A8ADF8043020F0BDFB03F02D
:100E8C00D2FA02B010BD00BF8C22002010B504466F
:100E9C0003F0C7FA204601F0AEFFBDE8104003F0A6
:100EAC00C2BA00000D4B1B6837B505469BB11C78C8
:100EBC000289C37A0A490092012C0A4A4FF00100B8
:100ECC0008BF022403F006FF2946204603B0BDE804
:100EDC00304020F02DBB702003B030BD8C220020A0
:100EEC00B5EF0200B0EF020010B5044600F0F8F8C0
:100EFC00631E04F10F02002113F8010FFF2808BF35
:100F0C0019709342F8D10023237410BD7FB504AB44
:100F1C0003E9030000239DF80D509DF80E6016495F
:100F2C001C46D8B201EBC0025268EAB99DF80C100D
:100F3C0000919DF80B309DF80A201049042003F015
:100F4C00E5FE25B12A460E49042003F0DFFE0D4ACA
:100F5C00BDF808300C49002C18BF2246042004B000
:100F6C00BDE8704003F0B6BE11F830000133B0425A
:100F7C0008BF1446D5E700BF0CF00200D5ED020007
:100F8C00E6ED0200D1ED0200EAED020007F038BAFE
:100F9C0010B50CF0DEFA012300224FF4E1312020D1
:100FAC0013F09AF908F0F2FB044609F0E7F8224630
:100FBC0003461249012003F08DFE08F0EDFB0446B8
:100FCC0009F0EAF8224603460D49012003F082FE9F
:100FDC0008F0DCFB012303FA00F040F2A173184285
:100FEC000BD0084C207808F0DDFB207808F096FC3C
:100FFC002078BDE8104008F097BD10BD84F10200C8
:10100C009AF10200B91B002037B50022114601A845
:10101C0001F073FE00284DD11EF090F90346002814
:10102C0043D02649264A012003F054FEAA21254824
:10103C0008F092F903F0E6F9FFF7E0FB00F058FB3B
:10104C0000F016FB0221084604F0B4F9FFF7FCFE91
:10105C0002F036FA1C4B1D4C1D4D41F202021A8057
:10106C001C4A522313801C4A4FF4004013801AF080
:10107C0091FF08F04DFF1EF00BFA02F0B9FF0128AA
:10108C0001D000F0FEFA13F07DF9FFF743FA2021AE
:10109C00002002F047FC28B1224629464FF6FF708B
:1010AC0003F034FE03F0C1F9E3E70C49022003F02E
:1010BC0011FEBFE7019803B030BD00BFA8F00200DD
:1010CC007DED0200B9F002000C2100206FF102004E
:1010DC0080F102000E2100201021002065F1020099
:1010EC00024910237F22098808F058BE103E0300E5
:1010FC001EF0BEBA1EF0C8BA1EF068B824F0ACBD23
:10110C001FB5684624F0B6FAC8B902A926F026FA2B
:10111C00082269460DEB020003F097F810B9002085
:10112C0004B010BD02A9012026F018FA0822694665
:10113C000DEB020003F089F890B90120F0E724F0E0
:10114C008BFA4FF6FF739842044609D0002026F024
:10115C001DFA8442E3D0012026F018FA8442ECD028
:10116C00FF20DDE738B5054603F06EF9044698B963
:10117C004FF4A8532A460949082003F0ABFD4FF45D
:10118C00A851284606F0C0FD054902460446082031
:10119C0003F0A0FD03F047F9204638BDBAF1020078
:1011AC00C6F102007FB5054603F03BF91EF060FA6C
:1011BC0040B16B88B3F5006F04D1681D01F0A2FD3E
:1011CC00044616E0284601F012FED8B90446E6B2F1
:1011DC00694630462CF08CF980B99DF800306BB91B
:1011EC00294630462CF006FA0028E9D075280BD099
:1011FC008C2403F018F9204604B070BD01340A2C7D
:10120C00E5D1F5E78D24F4E78B24F2E738B50546F4
:10121C0003F007F9284601F0E8FD98B928462CF0B0
:10122C00B7F968B175280CBF8B24882423462A464D
:10123C000549082003F04EFD03F0F5F8204638BDB3
:10124C000446F3E78D24F7E7D0F1020037B502A985
:10125C00FF2301F8013D044601F043FD18B19DF850
:10126C00070003B030BD094B03EB04131D7B13F0D7
:10127C00D2FF854201D0FF20F3E7204600F080FA30
:10128C000028F8D0204600F001FDEAE7903300205A
:10129C002DE9F04107460D4601F025FD0646F0B953
:1012AC00384600F031FCFF2819D00E4C04EB00142A
:1012BC0094F80C8013F0AFFF804510D163882B801D
:1012CC00A3886B80A3792B710121384600F0E4FCD4
:1012DC0031466871384600F0DFFC0126A8713046B3
:1012EC00BDE8F08190330020F8B504460E46154653
:1012FC0000F00AFCFF2802D14FF6FF70F8BD0B4B33
:10130C0003EB0010077B13F086FF8742F4D146B93C
:10131C0001222946204600F0E5FC0028ECD000888C
:10132C00ECE7012EE8D10022F3E700BF9033002058
:10133C0010B5044603F075F82046FFF70DFDBDE827
:10134C00104003F070B8000037B50C4B1B681C5CE8
:10135C0094420D460AD900922346094A09490420B1
:10136C0003F0B8FC0024204603B030BD0022014637
:10137C000092234628461EF02FFDF4E71C1C00208B
:10138C007DED020090F00200F0B599B0144603AD6B
:10139C000F46064603F045F8204652222946FFF731
:1013AC00D3FF84B28CB10DF10A0024F045F90DF194
:1013BC000B0024F049F99DF90B309DF80A20CDE97A
:1013CC00004539463046FFF7CDFB03F02CF819B039
:1013DC00F0BD2DE9F0419AB01D4605AC0F46904684
:1013EC00064603F01EF8522221462846FFF7ACFFB2
:1013FC0050B180B20090CDE901459DF88030424655
:10140C0039463046FFF7FAFB03F00DF81AB0BDE889
:10141C00F0812DE9F74307460E460A98BDF8308057
:10142C009DF83490194615461EF0FEFCFF28044624
:10143C003AD00B9B1870062F34D8DFE807F0040461
:10144C0004121929220003462A463146384624F054
:10145C0069FB054620461EF08BFB284603B0BDE811
:10146C00F0830C2203461146284624F02DFBF0E7AE
:10147C00EA7A0346CDE900891146284624F0E6FABB
:10148C00E7E703460C222946304624F085FAE0E7CC
:10149C000190EB7A00934A462B463146404624F0A5
:1014AC009FFAD6E70225D5E71825D6E70822014989
:1014BC0002F068BECD3E002010B5044608461DF073
:1014CC0099FE2046BDE810401FF05CBB1FF05ABBD4
:1014DC0005207047002070470A2070470420704791
:1014EC00014B1878704700BF341C00204B2070470C
:1014FC00024B18685968FFF709BD00BF0C72030056
:10150C0013B5044602F08DFF0DF1060024F094F89B
:10151C000DF1070024F098F89DF907209DF80610AE
:10152C0020460DF0E5FF30B99DF907209DF8061017
:10153C00204612F091FE02F076FF02B010BD38B5D5
:10154C0004460D4602F06DFF294620460EF004F9C4
:10155C0018B92946204612F08FFEBDE8384002F03B
:10156C0062BF38B504460D4602F05BFF29462046A3
:10157C000EF028F818B92946204612F05BFEBDE89B
:10158C00384002F050BF704700F090B87047000030
:10159C002DE9F341224B01931646044640B13AB172
:1015AC00002301AA9D5C8D4233D00133042BF9D169
:1015BC00022002B0BDE8F081E35C93FAA3F301468C
:1015CC00180E02F007FD434603F10108DBB2BB42E3
:1015DC00F2DBC2B292FAA2F2C0F30F2393FAA3F396
:1015EC00100E1B0E03EB00236219DB439BB212F8A7
:1015FC00020CD9B2884211D112F8012CB2EB132F84
:10160C000CD132462146284602B0BDE8F0412BF001
:10161C002FB800234FF6FF708F1ED5E7BD20C8E70B
:10162C00080A0E122DE9F041984686B00F4B15466C
:10163C00064603A80F461C7829F04AFA15F0FD0F50
:10164C0012D030B9BDF80C309B0702D5032D08BF62
:10165C000324304600942B464246394601F0D0FB19
:10166C00204606B0BDE8F0810324F2E7F02100200B
:10167C0008B504F085FC01F03FFBBDE808400DF017
:10168C0001BA08B501F03BFB0DF0B6FB0EF046FAC3
:10169C000EF0CAFDBDE8084004F0A4BC11F07CBFFC
:1016AC0001F094BB01F098BB0020704738B504469C
:1016BC000D4613F089FC29462046BDE8384001F060
:1016CC00A4BB01F08BBB01F094BB000010B5074A22
:1016DC000123312B194601D1002006E00233D41826
:1016EC0014F8034C8442F4D1505C10BDE6F10200B6
:1016FC00F0B587B040F20123194A1A49ADF8003011
:10170C00194B1A4D0220CDE9042308700023012245
:10171C001749ADF80430ADF80820ADF80C300DF1D8
:10172C00100E0DF1140C01AF02AE03AC10461DF8F7
:10173C0003200A703EF813204A803CF813208A805C
:10174C00DA5D8A71F25C487305EBC2028A601A5D3D
:10175C000A7310310BB107B0F0BD0123E7E700BFEE
:10176C0004010401F12100200204100818F7020002
:10177C0090330020014B1878704700BFF1210020F6
:10178C00034B03EB0010407B00F00100704700BFDF
:10179C0090330020413803288CBF00200120704773
:1017AC00413801288CBF00200120704743380128A4
:1017BC008CBF00200120704700207047064BC01AD8
:1017CC00064B80104343113B9BB2022B41F20200AB
:1017DC0028BF0020704700BFB0F40200CDCCCCCCA9
:1017EC000388B3F57C4F01D3FFF7E8BF0846FFF73A
:1017FC00E3BF10B54A880488A2420DD1037B0C7953
:10180C00234009D0B2F57C4F08D3FFF7D7FF0B89E3
:10181C001B1A5842584110BD0020FCE70120FAE782
:10182C0038B50D88D488A5420AD10388B3F57C4F0E
:10183C0008D2FFF7D5FF13891B1A5842584138BDFF
:10184C000020FCE70120FAE72DE9F04F8BB04FF0B8
:10185C00000A01939DF850300593714BDFF8D0913D
:10186C001B7804918046154608935746089A5FFAF0
:10187C008AF39A4201D8862063E099F800300293EB
:10188C00D9F808300393029A98F80030934240F04C
:10189C00BF8099F80D30D80709D5039B1B790793A6
:1018AC004FF0000B079A5FFA8BF39A4204D80AF1B7
:1018BC00010A09F11009D9E7039B1E68142303FBE5
:1018CC000B6641463046FFF794FF002800F09C80E1
:1018DC0033890693002306999AB2914202D80BF1F0
:1018EC00010BDFE7746809930C2202FB03442146C9
:1018FC0042463046FFF794FF2279099B00287BD0A3
:10190C00049B03B11C6091061ED4464809E01A7969
:10191C00920642BFD8783F18BFB20C339C42F6D81F
:10192C004148059B074493B121463046FFF758FFC9
:10193C002388B8F802100246029801F0B9F960BB8E
:10194C007E200BB0BDE8F08F0027384BE6E7002D6A
:10195C0035D021463046FFF743FF2388B8F80210F4
:10196C000246029801F0A2F90028E9D0DFF8C490F1
:10197C0028462379DB0615D521463046FFF730FF84
:10198C0098F80060B8F802101495034622463046C9
:10199C00CC460BB0BDE8F04F60473846DFF8989066
:1019AC002F46E6E7019AA3785AB9E278A3F14101F0
:1019BC00012908D8013AD2B2394604F00DFE0020B4
:1019CC00BFE7019AF2E7433B012B05D8023A92B2EA
:1019DC00394604F01BFEF2E7059B2BB9019B1BB1AA
:1019EC00E37801998B4218D8394617B902F026FCD6
:1019FC00E5E702F0C7FBE2E712F0300F02BFE07838
:101A0C003F18BFB2013366E770890744BFB266E77F
:101A1C00039BD8880744BFB249E7892091E700BFF0
:101A2C00F1210020B0330020CC32002064F20200FF
:101A3C0090330020DF2C0000E32C000010B586B0A2
:101A4C0000248DF81030BDF820308DF80C00ADF866
:101A5C000E10ADF81220ADF8143000942346224637
:101A6C0002A903A80294FFF7EFFE029806B010BD7E
:101A7C002DE9F84390F8048006461F4600254FF0E8
:101A8C001409EBB2984501D8002416E009FB05F0C7
:101A9C0033681C181B5A8B4217D12AB1802A0FD1DC
:101AAC0094F90C00002810DAB3F57C4F05D32046CE
:101ABC00FFF784FEB84200D03FB92046BDE8F8835A
:101ACC00402A02D1207B4006EED40135D9E7000034
:101ADC0030B50B4B0B4A1C780023D9B2A14201D371
:101AEC00002030BD1946013302EB031515F8105CCC
:101AFC008542F2D102EB0112507B00F00100F0E7BD
:101B0C00F12100209033002070B50A4B0A491D7852
:101B1C000023DAB2AA4202D3FF22104670BD1C0188
:101B2C006618645C844202D1747BE407F5D40133FB
:101B3C00EFE700BFF1210020903300202DE9F041A8
:101B4C000D4616461F46FFF7DFFFFF280AD0074C4D
:101B5C0004EB00103B46324629468068BDE8F04154
:101B6C00FFF786BF0020BDE8F08100BF9033002056
:101B7C0008B513460022FFF7E1FF003018BF012023
:101B8C0008BD08B513464022FFF7D8FF003018BF38
:101B9C00012008BD08B513468022FFF7CFFF0030A7
:101BAC0018BF012008BD08B540220023FFF7C6FF6F
:101BBC00003018BF012008BD08B580220023FFF7B4
:101BCC00BDFF003018BF012008BD000030B5094B27
:101BDC00094C19780023DAB28A4201D3FF2206E0BD
:101BEC00013304EB031515F8105C8542F3D1104654
:101BFC0030BD00BFF1210020903300202DE9F041D1
:101C0C000D4616461F46FFF7E1FF054C04EB00108E
:101C1C003B46324629468068BDE8F041FFF728BFB5
:101C2C00903300202DE9F84F0746884691469A4696
:101C3C00FFF784FFE0B10F4BDFF83CB01E780025B6
:101C4C002C46EBB2B34202D32046BDE8F88F0135E7
:101C5C000BEB051313F8100C8742F5D053464A468C
:101C6C004146FFF7CBFF002818BF0134E4B2E8E788
:101C7C00FF24E9E7F1210020903300201346402295
:101C8C00FFF7D0BF0022FFF7F9BF0000014B0001A6
:101C9C00185C70479033002070B50D46FFF734FF89
:101CAC00FF2818D00E4B03EB001082689AB100236A
:101CBC00117918461426DCB2A14200D870BD146804
:101CCC0006FB0344247B45B114F0400F1CBF0130CC
:101CDC00C0B20133EFE70020F0E714F0800FF5E716
:101CEC00903300202DE9F0410F469046FFF70CFF92
:101CFC00FF280BD0104B03EB0010002385682979CB
:101D0C001C464FF0140CDAB2914202D80020BDE808
:101D1C00F08128680CFB0300067BB8F1000F08D09B
:101D2C0016F0400F03D0BC42F1D00134E4B20133C1
:101D3C00E9E716F0800FF5E79033002030B585B059
:101D4C00044613F066FA0546012002F075FB012CDF
:101D5C0003D0FF2C5DD185425BD101237F22212151
:101D6C0002A808F08BFB30230093002202AB4FF447
:101D7C00A061012000F083FC02237F22222102A813
:101D8C0008F07CFB0122312300934FF4A06102ABDD
:101D9C00104600F074FC02237F22232102A808F0D5
:101DAC006DFB19230093022202AB4FF4A0610120BA
:101DBC0000F065FC08230DEB03007F22242108F0C2
:101DCC005DFBF0230093102202AB4FF4A0610120C5
:101DDC0000F055FC01237F22252102A808F04EFBC0
:101DEC0020230093112202AB4FF4A061012000F0DC
:101DFC0046FC02237F22262102A808F03FFB212368
:101E0C0000934FF6FD7202AB4FF4A061012000F07D
:101E1C0036FC05B030BD2DE9F3411C461B799B0700
:101E2C0005460E4690466DD56F4608220021384671
:101E3C0002F004FA002D08BF3D46012E62D1B8F520
:101E4C00A06F5FD1238863B92046FFF7B5FC40B97A
:101E5C0023795F0605D433462A467F21212008F0DA
:101E6C0023FB2388012B0CD12046FFF7A5FC40B99E
:101E7C0023795E0605D402232A467F21222008F00E
:101E8C0013FB2388022B0BD12046FFF795FC38B9A6
:101E9C002279500604D42A467F21232008F004FB23
:101EAC002388102B0CD12046FFF786FC40B92379F0
:101EBC00590605D408232A467F21242008F0F4FA79
:101ECC002388112B0CD12046FFF776FC40B92379DF
:101EDC005A0605D401232A467F21252008F0E4FA6E
:101EEC0022884FF6FD739A420CD12046FFF764FC12
:101EFC0040B923795B0605D402232A467F2126208C
:101F0C0008F0D2FA02B0BDE8F08100002DE9F04FE4
:101F1C008BB08046039113F07CF9444B04901B78F2
:101F2C0005930024059B9C4235D2B8F1FF0F0BD0D2
:101F3C004046FFF7E9FDFF28044631D03C4B4FF0FB
:101F4C00000903EB041B1CE0394B049A03EB04134C
:101F5C001B7B9342F2D00134E4B2E3E71B681422FA
:101F6C0002FB05352B89B3F5967F01D907F0D0FF1D
:101F7C004FF0000A2A891FFA8AF39A4213D809F102
:101F8C000109DBF808301A795FFA89F5AA42E5D81D
:101F9C00B8F1FF0FDFD0039B13B94046FFF7CEFE1D
:101FAC000BB0BDE8F08F0C221FFA8AF3696853431B
:101FBC00CF183A79D0062FD49BF800008DF81C006E
:101FCC002888ADF81E0012F0400F0CBF4020802076
:101FDC008DF82000CB5AADF8223039462846FFF751
:101FEC00FFFBADF824005207FB7818D5022BBE6816
:101FFC0000D936680123009300231946324607A8FE
:10200C00FFF722FC039B3BB13B46BDF81E209BF81F
:10201C0000103046FFF7FFFE0AF1010AAAE7022B77
:10202C0094BF07F10806BE68E4E700BFF121002069
:10203C00903300200021FFF769BF10B50121044641
:10204C00FFF764FF2046BDE81040FFF727BB10B533
:10205C00047B14EA010310D0002201238B4203D32A
:10206C00036953F8220010BD1C4218BF01324FEA1D
:10207C00430318BFD2B2DBB2F0E71846F3E7F8B56A
:10208C0016461F469DF81820BDF81C300546FFF774
:10209C0055FD78B10421FFF7DAFF044650B128460C
:1020AC0002F0D2F93A4631462846A047BDE8F8403E
:1020BC0002F0B9B9F8BD2DE9F74F0C9D9DF834B07D
:1020CC001F4681468A46BDF83830144612B30DB30C
:1020DC0007B392F804802A78618812F0080F14BFB5
:1020EC00402280224046FFF729FD98B10821FFF7D6
:1020FC00AEFF064670B1404602F0A6F9CDE9005B92
:10210C003B46224651464846B04703B0BDE8F04F27
:10211C0002F089B903B0BDE8F08FF8B5BDF81850DE
:10212C0017461A462B460446FFF708FDE0B175B971
:10213C000221FFF78CFF0546B0B1204602F084F96E
:10214C0039462046A847BDE8F84002F06CB910218A
:10215C00FFF77DFF064638B1204602F075F92A4696
:10216C0039462046B047EEE7F8BD73B5BDF81840C8
:10217C0016461A4623460546FFF7E0FCB8B1C4B92B
:10218C002021FFF764FF044670B1284602F05CF989
:10219C00099B00939DF81C209DF820303146284661
:1021AC00A047044602F03FF9204602B070BD8624D9
:1021BC00FAE70024F8E72DE9F04186680446007838
:1021CC0002F042F9002514273279EBB29A4203D877
:1021DC00BDE8F04102F027B97B4332682078D15A30
:1021EC0002EB030800F066FD01214046FFF72FFFCC
:1021FC00034608B1207898470135E5E770B5084DDE
:10220C00084E00242B78E0B2834200D870BD06EB58
:10221C000010437BDB0701D5FFF7CDFF0134F1E75D
:10222C00F1210020903300202DE9F0411E4B064691
:10223C001E480C4619780023DAB28A4203D30024D4
:10224C002046BDE8F0815A1C00EB021515F8105C15
:10225C00B54201D01346EFE700EB0310437B03F0CC
:10226C0001022CB143F00103437342B10124E7E7AF
:10227C004473002AFAD005464FF014080DE0FFF71E
:10228C009AFFDDE71B6808FB04F41A19195B127B33
:10229C003046D209FEF7B2F93C46AB681A79671C96
:1022AC00E4B2A242EED8E1E7F12100209033002005
:1022BC0010B5094B094AC01AC0F38F0000239C5A71
:1022CC00844202EB030101D1488810BD0433202B5A
:1022DC00F5D10020F9E700BF2CF6020016F202003F
:1022EC002DE9F04F85B00F469346BDF8382001928A
:1022FC009DF840107C7D80B3A4B3012C18BF04243E
:10230C009DF84480DFF88490002635461FFA88F843
:10231C0036F80900584519D109EB060090F803E08E
:10232C001EEA040F12D090F802A08A450ED31EF0BC
:10233C00100FFA7B18D04AB1CDE90231FFF7B8FF84
:10234C00B7F810C08445DDE902310FD00436D82E21
:10235C00DED1012005B0BDE8F08F002C14BF0424A1
:10236C000824CDE70224CBE7002AEFD1A8450BD0F7
:10237C00019AAA4208D903F805A00F9A10880135D2
:10238C0001301080ADB2E1E70020E3E72CF602004B
:10239C002DE9F04F89B01D46BDF848409DF85030EE
:1023AC000193934623462A4607460E46FFF7C6FB83
:1023BC008DF81470ADF816608DF81850ADF81AB091
:1023CC00ADF81C40814618B9012009B0BDE8F08F6A
:1023DC0005A9FFF70EFA0028F6D09DF84C30002521
:1023EC009BB22E462F462C46029336E00C231FFA46
:1023FC0085F8B9F8002003FB08F8D9F80430B2F5D9
:10240C007C4F03EB080A1AD333F8080058452ED337
:10241C00029BA3422DD901F05DFF9AF8020001F056
:10242C0045FF019B43B19AF8043013F0010F0CBF28
:10243C000520072001F03AFF0134A4B219E033F86B
:10244C000820ADF81A20514605AA48460393FFF719
:10245C00E7F9039B0028D7D10135B9F80820ABB2B6
:10246C009A42C3D83C44A31B58425841ADE70137AC
:10247C00BFB20136B6B2EFE72DE9F04F8FB09846F8
:10248C009DF8703006930023BDF860908DF82C00F9
:10249C00ADF82E10ADF83220009305460E461746C7
:1024AC0008A91A460BA80893199C9DF868B09DF8CA
:1024BC006CA08DF83080ADF83490FFF7C5F9089B0F
:1024CC00002B00F09880BAF1000F07D19A785A458A
:1024DC0040F094801A79D10740F193801A79520711
:1024EC0035D59A685168926809910A92987804F0E7
:1024FC0009F9089B059093F803A0BAF1020F17D8BD
:10250C0003465246214609A804F0A1F8059B079002
:10251C00524621460AA804F09AF8079B012B01D0D9
:10252C00013014D14FF0870A50460FB0BDE8F08F40
:10253C00059B09985246214604F089F80128F1D0F0
:10254C00059B0A985246214604F081F8E8E7069B61
:10255C00002B59D1089B0394DB78CDF80090CDE982
:10256C0001B33A4643463146284600F02BFC8246DE
:10257C000028D9D1089B0394DB78CDF80090CDE9E5
:10258C0001B33A46434631462846FFF7EEFD8246F4
:10259C000028C9D101230093069B224619460BA89B
:1025AC00FFF752F982460028BED1089B32462946D5
:1025BC002046FFF730FC43463A4631462846CDE9E3
:1025CC0001B4CDF8009011F011FB089B0394DB785B
:1025DC00CDF80090CDE901B33A4643463146284642
:1025EC0000F0EFFBCDF8009043463A4631462846C2
:1025FC00FFF793FD98E74FF0860A95E74FF08D0AA9
:10260C0092E74FF0880A8FE74FF0000A8CE72DE92C
:10261C00F04786B007460F9D9DF84060BDF83840E6
:10262C000094CDE90156884691469A4600F03CFB51
:10263C0098B102280ED84FF00003049308BF012371
:10264C00CDE90263CDE9004553464A46414638463A
:10265C00FFF712FF06B0BDE8F0870120FAE730B5AE
:10266C0087B000240125CDE903549DF82C50029528
:10267C000A9DCDE90045FFF7FFFE07B030BD30B530
:10268C0087B000240125CDE903549DF8285000940F
:10269C00CDE901354023FFF7EFFE07B030BD10B593
:1026AC0086B04FF0000C0124CDE9034C9DF824407A
:1026BC000294089CCDE900344023FFF7DDFE06B000
:1026CC0010BD10B586B04FF0010C0024CDE9034CC1
:1026DC009DF828400294099C0194BDF82040009478
:1026EC00FFF7CAFE06B010BD30B587B000258DF8D7
:1026FC001030BDF828308DF80C00ADF80E10ADF888
:10270C001220ADF814300095BDF830300B9A0D9CAA
:10271C00029502A903A8FFF797F818B914B1029B08
:10272C009B78237007B030BD1FB5089C03949DF8AF
:10273C001C400294069C019400240094FFF7D4FFE3
:10274C0004B010BD30B585B000249DF82050039422
:10275C00CDE9013500944023FFF7C6FF05B030BD2D
:10276C002DE9F04FDFF8CCB099B04FF00008FFF72F
:10277C0001F85FFA88F5A84202D819B0BDE8F08FCD
:10278C002D010BEB05034FF0000904930BEB050334
:10279C005FFA89F49B681A79A24202D808F1010801
:1027AC00E5E71B68142202FB043400262289B3B22D
:1027BC009A4202D809F10109E8E70C231FFA86FABC
:1027CC0003FB0AFA6368059303EB0A0707F0A0FB07
:1027DC0039462046FFF704F8049B218893F800C083
:1027EC00059B33F80A203B794FF0000E13F0400F95
:1027FC000DF11C0A4FF04103CDE9023ECDE9000A70
:10280C0014BF802340236046FFF76EFF862806D056
:10281C00B878FEF7C5FF20B1504601F0E3FD013654
:10282C00C4E7B878FEF7C2FF0028F8D0504601F094
:10283C00DEFDF4E790330020F0B597B01646BDF8F6
:10284C007470042F48D90DF113040394412402949D
:10285C0005ADBDF8704000940195FFF745FF0446A7
:10286C00A0BB9DF81300A0F14103012B21D82846F1
:10287C0001F0B8FD0130C4B2E31CBB422CDA304687
:10288C0001F028FD154E002001F010FD9DF81300FD
:10289C0001F00CFD33881A19512A1DDC1048A4B222
:1028AC0022461844294601F06DFC308804443480DB
:1028BC0012E0A0F14303012B04D8284601F097FD48
:1028CC000230D8E7FEF702FF0446D5E7304601F0A8
:1028DC0001FD204601F0EAFC17B0F0BD3C340020AD
:1028EC004C34002038B5C37B05460BB1832038BD72
:1028FC00C47C2CB905F08CFC20B9EB7B002BF5D1FA
:10290C008120F4E72046F2E738B5C37B05460BB1CE
:10291C00832038BDC47C6CB9017D82898B1C9A42A2
:10292C000AD3806801F039FD0CF070FD30B9EB7BF7
:10293C00002BEDD18120ECE78020EAE72046E8E788
:10294C00C37B10B504460BB1832010BDC37C1BB1F7
:10295C00012B10D08120F8E7017D82898B1C9A42D3
:10296C000CD3806801F019FD0DF0DAFB40B9E37B64
:10297C00002BE9D1EEE70DF0EBFBF7E78020E4E765
:10298C000020E2E738B5C37B04460BB1832038BD89
:10299C00C37C032B15D8DFE803F002161924017D44
:1029AC008289CB1C9A4227D38068455C013101F0A7
:1029BC00F4FC0146284610F01DFDF8B9E37B002B12
:1029CC00E4D18120E3E710F06FFDF6E7017D828909
:1029DC000B1D9A4210D3806801F0DCFC10F0B0FDA6
:1029EC00EBE7017D82898B1C9A4205D3806801F04C
:1029FC00D4FC10F0BBFDE0E78020C8E70020C6E760
:102A0C0038B5C37B05460BB1832038BDC47C74B983
:102A1C00037D81899A1C91420BD38268591CD05C2E
:102A2C00515C0DF0ABF930B9EB7B002BECD1812074
:102A3C00EBE78020E9E72046E7E70000F8B5C37B29
:102A4C0004464BB3036941F2020223F47F03934221
:102A5C0024D1057D8289AB1C9A4201D28020F8BD1D
:102A6C00ADB22946806801F098FC0646A068A7899B
:102A7C000235284401F0B6FC284401308742EDD3DE
:102A8C002946A289A06801F08FFC0146304605F06A
:102A9C0025FE70BBE37BC3B98120E0E7164A934265
:102AAC0002D105F00DFEF4E7144A93420AD1017DE0
:102ABC0082898B1C9A42D1D3806801F06EFC05F0A0
:102ACC00CBFEE6E70E4A934201D08320C7E7057D93
:102ADC0086898068284401F085FC284401308642B0
:102AEC00BCD3A289A068294601F05EFC05F058FE13
:102AFC00CFE70020B3E700BF021000010210000274
:102B0C0002100003C37B70B50446E3B1036941F2C4
:102B1C00020223F47F03934217D1037D8289191D8E
:102B2C008A4240D3806899B2C55C4B1C0231C656B0
:102B3C0001F033FC3146024628460DF01DFF0028FB
:102B4C0033D1E37BD3B9812019E0194A934212D1D6
:102B5C00037D8289191D8A4225D3806899B2C55C90
:102B6C004B1C0231C65601F018FC31460246284671
:102B7C000DF0F8FEE3E70F4A934201D0832070BDBD
:102B8C00037D8289191D8A420DD3806899B2C55C78
:102B9C004B1C0231C65601F000FC31460246284659
:102BAC000DF0F4FECBE78020E9E70020E7E700BF5B
:102BBC00021000010210000238B5C37B002B437DCC
:102BCC0014BF8325C325012B044626D10368028A32
:102BDC0059885879FEF7DEFFF8B123685B88082B1B
:102BEC0010D007D8032B11D002D3053B012B09D9E8
:102BFC00284638BDB3F5407F04D0B3F5805F01D0D3
:102C0C00192BF5D1E37B33B18325F1E72046BDE8E1
:102C1C003840FFF779BE8125EAE7637D002BE7D1C9
:102C2C002368228A59885879FEF7ABFF0028DFD039
:102C3C0023685B8840F202429342E3D00BD8012B0D
:102C4C00E0D022D3032B25D0202BD1D12046BDE8B8
:102C5C003840FFF797BE40F605329342D2D007D8E2
:102C6C00B3F5A06FC4D12046BDE83840FFF7C8BE0D
:102C7C004FF60142934212D04FF602429342B7D123
:102C8C002046BDE83840FFF73DBF2046BDE8384040
:102C9C00FFF728BE2046BDE83840FFF751BE20465E
:102CAC00BDE83840FFF7CABE0120704701207047CD
:102CBC0001207047704700207047002070470020AB
:102CCC00704700207047002070470020704700209C
:102CDC0070470120704701207047B52070470020D5
:102CEC0070470020704700207047002070477047E5
:102CFC0000207047B5207047704700207047704720
:102D0C000020704784207047704700207047704740
:102D1C0070477047704770477047704770477047EF
:102D2C0070470020704770470020704701207047A3
:102D3C00704770477047704770470120704700001C
:102D4C0070B50C4615460C490C4A1E46002808BFA7
:102D5C000A4603460A49012001F0BCFF32460949E4
:102D6C00012001F0B7FF2B46224607490120BDE8A0
:102D7C00704001F0AFBF00BF28F7020047EF020020
:102D8C0035F702005BF7020071F70200034B1B687A
:102D9C001878012808BF0220704700BF8C22002041
:102DAC007047704700207047034A03460120C3E96F
:102DBC00032000221A7070470100FEFF7047704715
:102DCC007047704700207047002070470020704704
:102DDC00002070470020704700207047002070478B
:102DEC00002070477047B5207047002070470020C6
:102DFC00704700207047704770477047B520704788
:102E0C0070477047704700207047704701220521BA
:102E1C00104603F0E3BD04220521012003F0DEBDC2
:102E2C0003220521012003F0D9BD02220521012036
:102E3C0003F0D4BD05221146012003F0CFBD0622BC
:102E4C000521012003F0CABD41220521012003F018
:102E5C00C5BD40220521012003F0C0BD4222052141
:102E6C00012003F0BBBD00220521012003F0B6BDFB
:102E7C0002220621012003F0B1BD422206210120CD
:102E8C0003F0ACBD41220621012003F0A7BD0122B5
:102E9C000621104603F0A2BD40220621012003F0BA
:102EAC009DBD00220621012003F098BD03220821BC
:102EBC00012003F093BD02220821012003F08EBDF6
:102ECC0007220821012003F089BD062208210120D8
:102EDC0003F084BD04220821012003F07FBD0522EC
:102EEC000821012003F07ABD00220821012003F003
:102EFC0075BD01220821104603F070BD402203214C
:102F0C00012003F06BBD01220321104603F066BDC6
:102F1C0000220321012003F061BD022203210120C4
:102F2C0003F05CBD00224FF4A061092003F056BDF4
:102F3C0001224FF4A061092003F050BD47224FF449
:102F4C004071012003F04ABD05224FF4407101206D
:102F5C0003F044BD02224FF44071012003F03EBD4A
:102F6C004C224FF44071012003F038BD09224FF47C
:102F7C004071012003F032BD03224FF44071012057
:102F8C0003F02CBD06224FF44071012003F026BD46
:102F9C0000224FF44071012003F020BD0A224FF4AF
:102FAC004071012003F01ABD07224FF4407101203B
:102FBC0003F014BD04224FF44071012003F00EBD48
:102FCC0001224FF44071104603F008BD4B224FF420
:102FDC004071012003F002BD08224FF44071012022
:102FEC0003F0FCBC44224FF44071012003F0F6BC0A
:102FFC0042224FF44071012003F0F0BC43224FF405
:10300C004071012003F0EABC40224FF440710120D2
:10301C0003F0E4BC41224FF44071012003F0DEBC0C
:10302C0001220021092003F0D9BC000002292DE95E
:10303C00F84F05468A4602D963B1042908D85B4982
:10304C00022001F047FE4FF0000B5846BDE8F88F08
:10305C0042F004020C9C2A70002B3ED06B701B0AB1
:10306C00AB70032703F05AF807F1020BE855013750
:10307C009DF82830EB554FF000095FFA89F30B9A55
:10308C00D65C002EE1D0732E50D8A6F14C01C9B2FB
:10309C00162904F10408276829D8454B23FA01F1B5
:1030AC00C94311F001012CD160684C2E04F10808C1
:1030BC0084B214D14FF6FF7120468C4214BF02210A
:1030CC0000210BEB04020A4492455EDA621839497E
:1030DC003346022001F0FEFDB5E70127C2E7532E6F
:1030EC000DD1C0B2B0F1FF0118BF0121E9E76C2E80
:1030FC0007D1384601F07BF9023084B20021084632
:10310C00DFE7732E04D1384601F06CF90130F4E797
:10311C00A6F13004E2B2092A01D8A4B2EEE7A6F176
:10312C004102062A0AD8A6F13704F6E7752E0BD011
:10313C00762E10D0782E10D0772E10D032461E4915
:10314C00022001F0C7FD7EE7012104F1040820688C
:10315C0000242746B5E70221F7E70321F5E7042110
:10316C00F3E70CF1010E013A05F80C00D2B2000A9B
:10317C001FFA8EFC002AF4D18B441FFA8BFB84B10E
:10318C0037B9334622460D49A3E7DC460A46F1E738
:10319C0005EB0B002246394600F0F4FFA3441FFA5E
:1031AC008BFB09F10109444667E700BF0A110300D4
:1031BC0081004000481103002F1103007B11030014
:1031CC0010B5044C20600448018004490A60044A8C
:1031DC00136010BDFC21002000220020F8210020EB
:1031EC00F421002070B586B00AAC0D4654F8046B7F
:1031FC000B49059409880093CDE9016413460246F6
:10320C0008480068FFF712FF074B1B681880074B34
:10321C001B684FF48A525D80DA8006B070BD00BF27
:10322C0000220020FC210020F8210020F4210020A5
:10323C0008B430B586B009AB0C4653F8045B0D49A5
:10324C00059309880092CDE9015302460A480023F0
:10325C000068FFF7EBFE094B1B681880084B1B68D6
:10326C004FF48A525C80DA8006B0BDE8304001B081
:10327C00704700BF00220020FC210020F821002014
:10328C00F4210020044B054A19681268098803468A
:10329C0003480068FDF759BBF8210020FC210020F1
:1032AC00F42100200020FFF7EDBF0000044B054A7D
:1032BC001B6812681988044B1868FDF7C7BA00BF61
:1032CC00F8210020FC210020F421002007B5074B39
:1032DC001B681B880192064A12680092054A126804
:1032EC00FDF707FB03B05DF804FB00BFF8210020DD
:1032FC00FC210020F42100200022FFF7E7BF000092
:10330C0007B5064B1B681A880091054B05491B68CD
:10331C000968FDF7D5FA03B05DF804FBF82100202D
:10332C00FC210020F42100200021FFF7E9BF000060
:10333C00014B1868704700BFF4210020024B1B683A
:10334C0018715971704700BFF4210020F8B50D4673
:10335C008C680A6826490646202007F018FA6B6824
:10336C007BB92449202007F012FA202010F0F2FF3C
:10337C002149202007F020FA2020BDE8F84010F069
:10338C00E9BF002EF1D01D4D1D4E1E4F013C14F80F
:10339C00013F23B91849202007F00EFAE5E7752BF9
:1033AC0016D0762B16D0772B16D0732B16D0722BFB
:1033BC0016D0712B16D0622B16D06E2B16D012494C
:1033CC00124A2A2B18BF1146202007F0E0F9DEE73D
:1033DC002946F9E73146F7E73946F5E70C49F3E7B3
:1033EC000C49F1E70C49EFE70C49EDE70C49EBE729
:1033FC00924803003D120300EE110300FB11030081
:10340C00EF110300061203004412030041120300E3
:10341C00121203001C1203002712030032120300C5
:10342C003C120300F0B5214A92F87B30184452FA52
:10343C0080F01F4B90F865C090F866501F78A5EB94
:10344C000C050026EDB23046F4B2A54225D90CEBA2
:10345C00060313445B7811B10CB92D2B17D0782BC4
:10346C001FD0582B05D108B137240AE0013C012CA0
:10347C0014D9602B17D8402BF6D83A2B34BF3024F4
:10348C0000241B1BDBB29F4203D900FB0730013623
:10349C00DAE7052382F879300020F0BD10270020F0
:1034AC00F5E70028E2D05724EBE700BF022200200A
:1034BC00BA1B0020014B1B681868704708340020A9
:1034CC00094A0023FF21137082F8783082F86530A6
:1034DC0082F8773082F8793082F87A1082F87B3073
:1034EC00024A1360704700BF0222002008340020FB
:1034FC00034B93F8770093F87B30C01AC0B2704737
:10350C00022200200021FFF78DBF000010B50A4BEE
:10351C0093F87B20024453FA82F292F8652013440C
:10352C005C78A4F12D0359425941FFF77BFF2D2CF8
:10353C0008BF404210BD00BF0222002030B50C4A2B
:10354C0092F87B300344C043DBB2C00F39B1D518BD
:10355C0095F8664095F86550641B241A0C7042FA75
:10356C0083F393F865301844024B184430BD00BF08
:10357C000222002003220020F7B50E460DF10701B0
:10358C0015461C46FFF7DAFF9DF80730AB4207469D
:10359C0088BF8DF807501CB19DF807402C1BE4B276
:1035AC0022463046002100F049FE30199DF80720D4
:1035BC00394600F0E7FD9DF8070003B0F0BD38B5C3
:1035CC0008220C460123FFF7D7FF04F10803621E03
:1035DC00043413F8011D12F8015F1D70A342117021
:1035EC00F7D138BD38B5014605460120FFF7AEFED0
:1035FC00D5E901436CB91C46084D236863B12946D3
:10360C00202007F0C4F821460020FFF79FFE0C3461
:10361C00F3E71B786E2BEFD038BD00BF4E1D0300B7
:10362C0008B50449202007F0B2F82020BDE8084076
:10363C0010F090BEAF11030038B5FFF7F1FF064D47
:10364C00002461190C34631953F80C3C03B938BDD0
:10365C000020FFF77BFEF4E798F702002DE9F84F06
:10366C001F4B204D53F820201F49202007F08FF8C6
:10367C002B681BB9BDE8F84FFFF7DEBF1B4FDFF817
:10368C0074A0FFF7CDFF0026B94697F87B30F4B253
:10369C00013B9C4204DB2868BDE8F84FFFF7A2BF52
:1036AC0047FA86F34C4493F865800023C84494F899
:1036BC00662094F86510521A03F1010BD2B2DBB2FA
:1036CC00934205D30A49202007F061F80136DCE764
:1036DC00434451465A78202007F059F85B46E6E7F8
:1036EC00BC1B002008340020AA1103000222002079
:1036FC004F1D0300573103002DE9F74F824C94F80E
:10370C007730002B00F0A380804B1B7813F0010F57
:10371C0004F101071FD000257D4E14E06319202011
:10372C0093F8662093F86530D21A44FA85F3D2B236
:10373C0093F86510394410F008FE3146202007F04C
:10374C0026F80135EDB294F87730AB42E6D87149E2
:10375C00202007F01CF894F877300193DFF8C0E1D3
:10376C006D4B00269EF800801EF801CF1EF8012C30
:10377C004FF00009ACEB020CB8445FFA8CFC4D46E0
:10378C001868002853D00138C24619E02AB9002D18
:10379C004BD04FF001090C33F2E71AF8011BA1F1E1
:1037AC00410BBBF1190F98BF2031A2F1410B98BF0F
:1037BC00C9B2BBF1190F9CBF2032D2B28A42EAD1F6
:1037CC00AAEB0801614510F8012FDFD1002ADED1E8
:1037DC001D46524B1D6094F87B30013384F87B30CE
:1037EC00D5E901230136F6B2002A36D01B786E2BB0
:1037FC0032D03F2B24D04FF000094F464FF0070A30
:10380C004FF0040B5FFA89F0811994F877C0AA681D
:10381C00C9B28C45D35D28D893B117447B782A2B39
:10382C001CBF032384F879300AE01D46B3E7B9F1D5
:10383C00000F01D1002DCCD1022384F87930002562
:10384C0094F8790000285CD1686800F02FF903B077
:10385C00BDE8F04FFFF734BE1346019AB24281D84F
:10386C00032284F879201D46EAE7732B08D8712BC4
:10387C000AD2002B43D0622B30D084F879A016E00A
:10388C00A3F17502022AF8D8752B1ED0762B1FD007
:10389C00732B20D0722B47F6FF7818BF4FF0FF38F0
:1038AC000121FFF7BFFD404501D984F879B0AB6821
:1038BC003B4409F101095B782A2B94F879301CBF41
:1038CC000137FFB2002B9DD0BAE74FF0FF08E7E7B6
:1038DC004FF6FF78E4E74FF07F08E1E794F87B3090
:1038EC00184454FA80F090F8653023445B78222B0E
:1038FC00DDD07B2BDBD0052384F87930D7E703238D
:10390C00FAE7FFF7ABFEA2E7022200207E2200209E
:10391C004F1D0300EC11030098F70200083400203F
:10392C00672200202DE9F3415E4C5F4F06460D46A1
:10393C004FF0000866B90DF10701284610F0FEFCA7
:10394C0078B1262800F0A980012384F879304BE067
:10395C00002D00F0A28016F8013B8DF80730013DD8
:10396C00EDB23A789DF807303B700D2A01D10A2B45
:10397C00E0D00D2B0CD0A3F10A0251425141227818
:10398C008846042AD6D8DFE802F0051D263C310013
:10399C000121F4E721B1FFF7AFFE4FF00108C9E7B1
:1039AC00202B63D0222B07D10223237094F878208C
:1039BC00642A5DD10623C8E77B2B01D10323F4E7EE
:1039CC000123F2E709B9202BF0D194F87730112BB1
:1039DC003FD10323B9E7222BF7D00029E6D00523EA
:1039EC0084F879304FF0010804232370B8F1000FEC
:1039FC00A0D094F8790008B1FFF730FEFFF760FD16
:103A0C0098E77D2B94F87A0003D1FF28DDD00523AD
:103A1C009BE7602B13D8402B13D8392B8CBF00227B
:103A2C0030229A1AD2B20F2A10D8FF280BD002EBF0
:103A3C000012FF238DF8072084F87A30B6E757225E
:103A4C00EFE73722EDE784F87A2073E7202BDED1FD
:103A5C0070E70133DBB284F87730234494F8782094
:103A6C0083F8652000232370002994D1884661E7F0
:103A7C002378012B09D19DF80730A3F141011929B5
:103A8C009CBF2033DBB28DF80730A3189DF80710CC
:103A9C005970013284F878204CE7404602B0BDE8FA
:103AAC00F08100BF022200207F22002010B5054BC0
:103ABC000446187800F0B0FCA047BDE8104000F0B8
:103ACC00B2BC00BF902200207FB501A8FDF70CFA14
:103ADC0001AA0349042001F0FDF807B05DF804FBCE
:103AEC001F1503002DE9F04F18228DB0FF230DEBAD
:103AFC00020000218DF80A302AF0B9FC0DF10B01FF
:103B0C004FF0FF30FFF71AFDFFF7DEFF41F2020224
:103B1C009D49042001F0DEF804A8FDF7C7FC06A9B6
:103B2C000DF10A00FDF7C8FC0420984901F0EEF8ED
:103B3C00042001F0BBF810B104A801F033F89DF992
:103B4C0022309DF823209249042001F0C3F81BF089
:103B5C00C5FB831EDBB2FC2B05462AD88D498E4E45
:103B6C008E4FDFF8A482042001F0B4F80124224621
:103B7C003146042001F0CAF803A9E0B21BF05EFB49
:103B8C009128024600F09580932800F0928000283E
:103B9C0040F094809DF90C1000919DF80E309DF82A
:103BAC000D207F49042001F095F80134E3B2AB42BB
:103BBC00DDD3BDF82040FDF79BFA22460346794938
:103BCC00042001F0A3F80420774901F09FF80420A9
:103BDC0001F06CF810B106A800F0E4FF7349042062
:103BEC0001F078F820F026F9044620F01DF9224661
:103BFC0003466F49042001F06DF8FDF779FC6D491F
:103C0C00042001F083F89DF80A20FF2A5BD06A4952
:103C1C00042001F07BF86549DFF8F081042001F005
:103C2C0059F8FDF755FC654A65490346042001F037
:103C3C0051F81BF0CBFA63490246042001F066F8F8
:103C4C00FDF74EFC0446FDF751FC224603465E4947
:103C5C00042001F03FF8FDF78DFD5C49024604207D
:103C6C0001F038F80025FDF785FDECB2A0422FD805
:103C7C0001225749574C042001F02CF8002000F089
:103C8C00CBFB554B55490022042001F023F8236847
:103C9C0053B11A785249042001F01CF82368514999
:103CAC005A78042001F016F800F0BDFB0DB0BDE809
:103CBC00F08F3946042001F00DF876E741460420D8
:103CCC0001F008F871E74849042001F01FF8A2E759
:103CDC00464B474F03EB04162046D6F80890FDF7E9
:103CEC00D5FF82462046FDF74BFD002814BFC34686
:103CFC00BB462046FDF7CAFF02F006F9002814BFA8
:103D0C00404638465B46009052463A49DFF800B1CF
:103D1C00042000F0FBFFB1797388327B0191B188EC
:103D2C0000910420344900F0D5FF002699F80430A6
:103D3C00F4B2A34201D8013595E7D9F800702F48A9
:103D4C002F4914235C4307EB040A3B5B9AF90C20C4
:103D5C0011EA220138BF01460A460420594600F0F8
:103D6C00D5FF042000F0A2FF38B150463C5BFDF7B4
:103D7C0025FD0146204602F063F92249042000F09B
:103D8C00A9FF0136D2E700BFDF120300FA120300CD
:103D9C002613030001130300171303003B13030046
:103DAC001E1303004613030064130300F6ED020018
:103DBC006D1303008E1303000AEE0200A11303001F
:103DCC00AA130300B8130300CC130300DB13030086
:103DDC004F1403008C2200205B14030069140300B1
:103DEC00751403008714030099130300903300200B
:103DFC00BE120300E613030006140300D3120300E3
:103E0C00C7120300EE110300E3260300B6120300F1
:103E1C003814030008B50020FFF774FBBDE8084018
:103E2C0080B200F0C1BF08B50020FFF76BFBBDE806
:103E3C00084080B200F0CCBF70B5074D074E00248F
:103E4C000C34631953F80C2C02B970BD31460420A4
:103E5C0000F040FFF4E700BF98F70200924803001F
:103E6C0006F07CB908B50020FFF74CFB054B1A781F
:103E7C0010F0FF0F14BF42F0010222F001021A7081
:103E8C0008BD00BF7E2200202DE9F84311F0A6FBEF
:103E9C00104EDFF84C80DFF84C9007460025EBB253
:103EAC0056F833400CB9BDE8F88358F8232049463E
:103EBC00012000F02BFF23782BB90749012000F0DB
:103ECC0009FF0135EBE762680449D21B012000F0C1
:103EDC0001FFF6E7F4E60200161503005E46030048
:103EEC00281B00200F15030010B523F0DBFD0D4936
:103EFC000446012000F00AFF022C0DD0032C0DD03B
:103F0C00012C0DD10849012000F000FF07490120C8
:103F1C00BDE8104000F0DEBE0549F4E70549F2E7C4
:103F2C000549F0E7A0140300BD1403003F12030081
:103F3C00C3140300D2140300E21403002DE9F84368
:103F4C00114EDFF854800025FDF714FCECB2A042B2
:103F5C0001D8BDE8F8832701204616F80790FDF735
:103F6C000FFC0A4B0A49002818BF43464A46012059
:103F7C0000F0CCFEF05DFDF706FB0649012000F0D9
:103F8C00A9FE0135E0E700BF903300206016030066
:103F9C0004150300EE1103005616030008B50020AB
:103FAC00FFF7B0FA094B1B681B681978A1F1650380
:103FBC0059425941C0B2FEF737F928B904490120DA
:103FCC00BDE8084000F086BE08BD00BF08340020E4
:103FDC00EA14030049BA89B24840C0F303114140C6
:103FEC00080380B24840C3B280EA43107047000017
:103FFC00014B1878704700BF80220020014B1870CD
:10400C00704700BF8022002017F0E6BF38B5A0F142
:10401C00430305460A2B31D8DFE803F0060A0A12DF
:10402C001230303030301100BDE8384012F078B921
:10403C0012F042F920B112F073F90028FBD138BD0F
:10404C00114C20780028FAD10123443D237010F044
:10405C00F9FD032D0DD8DFE805F00606090240F640
:10406C00010011F05DFA00232370E8E740F602002E
:10407C00F7E77A21054805F06FF9F4E78C2103483E
:10408C00BDE8384005F068B9812200202E150300E8
:10409C00704770477047704770477047704770475C
:1040AC00704700207047704770477047002070477A
:1040BC007047704700207047002070477047012000
:1040CC0070470120704770477047704770477047C2
:1040DC00704700002DE9F047204DDFF8A090DFF885
:1040EC00A0A000245FFA84F840461BF003F9FF28D7
:1040FC0006460CD122461A49287806F05DFB287832
:10410C00013410F027F9142CECD1BDE8F087154BD5
:10411C0059F82420144947B213EA270338BF5346F1
:10412C00287806F049FB002FE9DA14B1B8F1030F37
:10413C0008D10E4B0E49287816F0010F18BF1946FE
:10414C0006F03AFB0A2CDAD10A4B0B49287816F008
:10415C00010F18BF194606F02FFBD0E7B91B002042
:10416C0069160300EE110300911603002C160300D0
:10417C0042160300541603005E160300D815030004
:10418C00A61B03008842F0B54FEA92031AD89BB2E3
:10419C009E00871904460D4604370434BC4205F1D1
:1041AC0004053AD1C3EB8333314402EB8303013E64
:1041BC00304411FA83F3994220D011F8012B00F806
:1041CC00012FF8E7541E20449BB22144A0EB830638
:1041DC0004460D46043E043CB442A5F104050ED140
:1041EC006FF003045C43C3EB833302EB8303214482
:1041FC009BB201342044CB1A994209D1F0BD2F79DE
:10420C002771EF78E770AF78A7706F786770E2E787
:10421C0011F8012900F8012DEEE715F804CC04F88B
:10422C0004CC15F803CC04F803CC15F802CC04F834
:10423C0002CC15F801CC04F801CCAEE70244904254
:10424C0000D1704700F8011BF9E710B501380139AE
:10425C000AB9104606E010F8014F11F8013F9C42D4
:10426C0001D0E01A10BD013A92B2F1E70A4B10B539
:10427C0000241C70FCF73CFF084B2146188052228E
:10428C000748FFF7DBFF074B07481C8021460C2231
:10429C00BDE81040FFF7D2BFE52200204A340020D1
:1042AC004C3400203C3400203E34002007490B885D
:1042BC00512B9FBF064AD05401339BB29DBF0B803C
:1042CC0003F1FF3398180020704700BF3C340020E6
:1042DC004C34002038B50546C0B2FFF7E7FF044662
:1042EC00280AFFF7E3FF14B1002808BF002420467A
:1042FC0038BDF8B50546C0B2FFF7D8FF0446C5F384
:10430C000720FFF7D3FF0746C5F30740FFF7CEFFA3
:10431C000646280EFFF7CAFF24B12FB136B100288C
:10432C0008BF00242046F8BD3C46FBE73446F9E7BD
:10433C0070B50A4D2B885A18512A0C460CDC084EC5
:10434C000A460146F018FFF71DFF2888204480B26A
:10435C002880001B304470BD0020FCE73C3400205A
:10436C004C3400201944914208B509DC014400206A
:10437C0063B111F8012D013B02EB0020DBB2F7E732
:10438C0002201A46024900F0A5FC002008BD00BF1F
:10439C00861703000423FFF7E5BF08B50223FFF7D8
:1043AC00E1FF80B208BD00008A4208B5034606D87A
:1043BC00084A0949022000F08DFC084808BD5B5CE6
:1043CC00FF2B08BF00230B4493420844F6DB044A3E
:1043DC00EFE700BF9D170300AE17030088220020F3
:1043EC00BC1703000078FF2808BF0020704708B5F1
:1043FC0002220021FFF7D1FF4FF6FF73984208BF4E
:10440C00002008BD024B034A1A600020704700BF11
:10441C008C22002036F20200002814BF70200020ED
:10442C00704700207047002070477047014B187888
:10443C00704700BF9033002008B5FDF765FBFF28DF
:10444C000CBFFF20002008BD08B5FFF7F5FFFF28C3
:10445C000CBFA320002008BD002303707047007818
:10446C00003018BF01207047FCF762B8FCF76DB83C
:10447C0010B5182200210446FFF7E0FE2046FEF797
:10448C0036FC0020FFF73EF8E0720120FFF73EF803
:10449C00A0720220FFF736F82081FFF729F80328D5
:1044AC0008D90320FFF72EF8E37A03F01F0343EA41
:1044BC004010E07210BD00007FB518220021684644
:1044CC0029F0D5FF6846FFF7D3FF6846FCF7EAFCF6
:1044DC00044A05490346042000F0FCFB07B05DF8D4
:1044EC0004FB00BF704D03007C18030010B50020C6
:1044FC00FFF708F8041C4FF0010018BF0124FFF768
:10450C0001F80849A222002818BF014620461CF0D9
:10451C0061FB054A05490346BDE81040042000F044
:10452C00D9BB00BF00F8FF07AD0903007C180300DE
:10453C0070B50020FEF7E6FF04460120FEF7E2FF0F
:10454C0005460220FEF7DEFFE4B2C2B2201C29466B
:10455C0018BF01201CF097FB034A04490346BDE831
:10456C007040042000F0B6BBC81803007C18030090
:10457C000149042000F0AEBB1C18030008B50C491F
:10458C000020FFF71CF80A48FEF736FC0420094906
:10459C0000F0BCFB042000F089FB10B1044800F0D3
:1045AC0001FB05490420BDE8084000F093BB00BFA7
:1045BC00DB2200200E180300EE11030010B51DF0D5
:1045CC0007FE044A04490346BDE81040042000F0ED
:1045DC0081BB00BF830903007C18030010B50020C9
:1045EC00FEF790FF002104464FF0FF30FEF7A6FFC8
:1045FC000178A1F162035942E0B25941BDE8104083
:10460C00FCF7F8B908B5FEF7F9FB03490246BDE81B
:10461C000840012000F05EBBCB17030008B5FEF785
:10462C005CFB03490246BDE80840012000F052BB88
:10463C00DF17030010B50020FEF764FF0121C4B2A0
:10464C00A1400023FE224FF6FF7022F011FE2246FD
:10465C00034603490420BDE8104000F03BBB00BFFB
:10466C00F117030007B502A8032320F8043D1CF042
:10467C00C3FF04490246042000F02CFB03B05DF894
:10468C0004FB00BF6018030008B50020FEF73AFFDA
:10469C00C0B228B104490120BDE8084000F01ABBA3
:1046AC00024B187008BD00BFDD18030090220020DB
:1046BC0007B56846FCF7FAFEFCF71AFD08490246F6
:1046CC00012000F023FB684600F06CFAFCF712FDA9
:1046DC0004490246012000F0FDFA03B05DF804FB2A
:1046EC00371803005018030073B50020FEF70AFFBB
:1046FC00C4B20120FEF706FFC5B20220FEF706FF8A
:10470C0046B2FEF7F5FE032812D90320FEF7FAFE97
:10471C00C0B2009033462A462146012024F092FE76
:10472C0040B90949012002B0BDE8704000F0D2BA8E
:10473C000020EEE70090054B054A0649012000F0E9
:10474C00C9FA02B070BD00BF841803008C180300B6
:10475C0093090300A018030007B5012024F074FE90
:10476C00034638B9084A0949012003B05DF804EB47
:10477C0000F0B0BA0090044B054A0649012000F045
:10478C00A9FA03B05DF804FB8C180300B5180300FC
:10479C001D100300A0180300037813F0050F37B5A4
:1047AC0004460CD04388062B14D182688388526847
:1047BC001449127800920420134A00F08BFA2378E3
:1047CC00012B1DD0104A1149042003B0BDE8304024
:1047DC0000F080BA2BB982880D49042000F07AFAD7
:1047EC00EDE7012BEBD185680A49042000F08EFA25
:1047FC00284600F0D7F90849042000F06BFADEE7F0
:10480C0003B030BD08190300820F030058190300D0
:10481C002419030040190300EE110300094B1B6817
:10482C001B681B78652B084B0CBF012200221A70E9
:10483C001978064A064B0420002908BF1A46054978
:10484C0000F048BA08340020B81B0020F10C03001B
:10485C00310903008B1A0300FEF7C5BA37B50020E7
:10486C00FEF750FE05460120FEF74CFE054B1C885A
:10487C00054B009382B20123A9B2204601F00BF83C
:10488C0003B030BD701C0020A54700002DE9F04F8F
:10489C00384D394FDFF8F480DFF8F4900FCD91B03C
:1048AC000BAC0FC42B6835492360042000F012FABE
:1048BC0000263446FCF710FEF5B2A8420AD8FCF7E5
:1048CC000BFE224603462E49042000F003FA11B0D9
:1048DC00BDE8F08F07A9284628F00AFE02460028FA
:1048EC0042D19DF81C30032B84BF04238DF81C305F
:1048FC009DF81C30002B35D02A464146042000F090
:10490C0005FA9DF81C3010AA02EB8303494653F8B4
:10491C00142C042000F0FAF99DF82030BDF81E206C
:10492C009DF829A09DF81DB005932846049228F007
:10493C00D7FD049A059B02900192009304205B46DC
:10494C0052461049013400F0E1F90420E4B200F0C1
:10495C00ADF918B10DF1210000F024F90A49042039
:10496C0000F0B8F90136A5E73946042000F0B2F999
:10497C00F8E700BFF4180300B81903006A19030024
:10498C00D819030097190300EE1103001913030043
:10499C009248030028F0A4BF08B50020FEF7B2FD32
:1049AC00BDE80840C0B2FCF7DDBB0000084B1B683B
:1049BC001B685B78652B02D1002001F0C5BB6E2B08
:1049CC0001D10120F9E7662B01D10220F5E77047F0
:1049DC0008340020054B1B681B685B78A3F166024A
:1049EC0053425341024A1370704700BF08340020F1
:1049FC00981C002010B5002086B0FEF783FD694698
:104A0C0004460120FEF7DBFD0123102202A902203F
:104A1C00FEF7B2FDE1B202AB6A46002029F068F85D
:104A2C000446042000F042F918B121460448FBF773
:104A3C00C3FF0449042000F04DF906B010BD00BFBF
:104A4C007E1A0300EE11030010B58CB00023122265
:104A5C0007A90220FEF790FD03AA014607A8FCF760
:104A6C0097FD044688B1BD2804D11449042000F0F8
:104A7C0031F908E0022801D11149F7E70246114942
:104A8C00042000F027F90CB010BD01A90120FEF79D
:104A9C0096FD2046FEF736FD03ABC1B201AA2046B7
:104AAC0029F026F80446042000F000F918B121463C
:104ABC000548FBF781FF0549D8E700BF011A030041
:104ACC00241A03005F1A03007E1A0300EE11030080
:104ADC007FB50020FEF716FD04460220FEF712FDFE
:104AEC00C6B23046FFF7B0FCE4B20546E8B9012087
:104AFC008DF80000FEF706FDADF8020003208DF8DE
:104B0C000160FEF7FFFC0DF105018DF80400042097
:104B1C00FEF755FD10F07DFB69468DF80D00204623
:104B2C0028F068FD0546FFF77EFC2B46224603491C
:104B3C00042000F0CFF804B070BD00BFEF190300E3
:104B4C00F8B506460C4615461F4600F0AFF818B1EE
:104B5C00013C2544AC4200D1F8BD14F8012F394674
:104B6C00304600F0D3F8F5E730B4044D044C002B7C
:104B7C0014BF2B46234630BCFFF7E2BFB31A030029
:104B8C009026030070B5054608460C46FFF72AFC34
:104B9C00611C82B2024B2846BDE87040FFF7D0BFC3
:104BAC005731030000B502460C49C37908881178C7
:104BBC0089B006915178059191780491D17803913F
:104BCC0011790291517901919279009204493E2216
:104BDC0000F09CF809B05DF804FB00BF92220020A5
:104BEC00B71A0300024B03490246188800F072B84A
:104BFC0092220020924803002DE9F047104EDFF876
:104C0C0050A0104F0546884691460024AC4201D175
:104C1C00BDE8F08708EBC401308853460822FFF743
:104C2C008FFF01343088B9F1000F07D1064AA54235
:104C3C0008BF3A46054900F069F8E7E73A46F9E754
:104C4C0092220020EC110300EE11030091480300A6
:104C5C00B31A0300014600220220FFF7CDBF00006B
:104C6C002DE9F0410E4C0646208800F01FF8A8B143
:104C7C000C4FDFF834800025F3070AD518B94146EC
:104C8C00208800F043F820882A46394600F03EF888
:104C9C00002001351B2D4FEA5606EDD1BDE8F08101
:104CAC0092220020464403008CED02004FF6FF7365
:104CBC00984208D0030A08D1054B1B78034214BF55
:104CCC00012000207047012070470020704700BF72
:104CDC00721C00200EB417B505AA044652F8041B2A
:104CEC000192FFF7E3FF40B1202005F078FD054964
:104CFC00202005F04CFD044B1C8003B0BDE8104097
:104D0C0003B07047EC110300922200200EB417B5CB
:104D1C0005AA044652F8041B0192FFF7C7FF20B105
:104D2C00202005F05CFD034B1C8003B0BDE8104057
:104D3C0003B0704792220020F7B50F4F0F4E104D65
:104D4C0000240120A04080B257F82420FFF7AEFFCA
:104D5C00002814BF304628461346009022460949C5
:104D6C00202005F029FD013420200FF0F3FA042C4B
:104D7C00E7D103B0F0BD00BFCC1A0300E01A03006A
:104D8C00E41A0300E71A03000122FF210148FFF790
:104D9C0055BA00BF721C0020012200210148FFF708
:104DAC004DBA00BF721C00200122430100F0070025
:104DBC0002FA00F003F47F4303449BB21A0A01BFCA
:104DCC0002490A7813430B70704700BF721C002015
:104DDC000122430100F0070002FA00F003F47F43C4
:104DEC0003449BB21A0A01BF02490A7822EA030360
:104DFC000B707047721C002013B503680446587979
:104E0C0001F082F8236880B95A88032A0DD0E17C1E
:104E1C005B790120CDE900210E490F4AFFF75AFFBB
:104E2C000121204601F087FA08E05B88192B08D095
:104E3C002046FDF7C1FE01460028F2D1012002B048
:104E4C0010BD637D012BF3D120460DF0D2F9002863
:104E5C00EED0F3E7211B0300310903002DE9F04FDD
:104E6C008BB0C27C0592427D03688668B0F80CB0AA
:104E7C0090F814905F88002A14BF802240220546C7
:104E8C005879069201F040F8C0B9059B052B04D85F
:104E9C00059A2D23D340DB0710D4032F0ED0AF4936
:104EAC000120FFF717FFAE49059BAE4A0220FFF722
:104EBC0011FF0121284601F03EFA4BE1EB7B1BB1BF
:104ECC002A8A002A00F04282A74A00211180697DBB
:104EDC000029904614BF002008200BB140F00400BC
:104EEC00FFF7E4F9EB7B13B1288AFFF7F3F9A87C01
:104EFC00FFF7DCF9059B1FFA89F4162B00F22082D0
:104F0C00DFE813F017003A015B00480075015B0005
:104F1C0022017E013601870190019901F300AF0156
:104F2C001E021E021E02C501EE01C5010602F3009F
:104F3C00AF010120FFF7BAF9631C5B4502DB01F0FE
:104F4C00ADF907E15A4621463046FFF726FA2B68A1
:104F5C0081465879B8F80030C3F152039BB20193E3
:104F6C002B8A00934A46069B3946FCF79DFB70B989
:104F7C002B685879B8F80030C3F152039BB20193F7
:104F8C002B8A00934A46069B3946FDF755FCA21C1A
:104F9C0094B2D1E70420FFF789F94FF00009A31C64
:104FAC005B4520DBB9F1000FC9D1EB7B2C7D002BCD
:104FBC006D4B0CBF022204221A800420FFF776F9F5
:104FCC004FF0000AD04604F10309CB454DDC059B9C
:104FDC00052B00F0BF80B8F1000FB0D1BAF1000F73
:104FEC007FD1802166E75A4621463046FFF7D5F936
:104FFC003319079093F802A05046FCF7CBFB68B32B
:10500C00E01C3044FFF7EEF901305FFA80F85046AF
:10501C00FCF7C0FB28B108EB0403ABEB0303032B39
:10502C0021D42B685879CDF808A0E31C33440193A4
:10503C002B8A00933946DDE90632FDF742FB40B17D
:10504C0009F10109FFF732F907985FFA89F9FFF7BF
:10505C0041F908F10302224494B2A0E75046FCF750
:10506C0035FB8046D3E78020EAE75A462146304696
:10507C00FFF793F9331908909B7807931846FCF7C0
:10508C0089FB06EB09030993E0B11846FFF7AAF96F
:10509C0001305FFA80F92B68089A5879079B0293C4
:1050AC00099B01932B8A00933946069BFDF7AFFAB7
:1050BC0068B90AF101035FFA83FA09F10302224489
:1050CC0094B280E70798FCF701FB8146E3E708F10F
:1050DC0001035FFA83F8FFF7E9F80898FFF7FAF88D
:1050EC00EBE74046FFF7E2F829E7059B0C2B14BFD2
:1050FC0016200D20FFF7DAF8214630465A46FFF706
:10510C004CF9059B4E44152B8246B47802D1132CD6
:10511C0028BF13240020B8F80060FFF7C7F82B68ED
:10512C005879059BA3F1150CDCF1000343EB0C0340
:10513C00CDE901432B8A00935246069B3946FDF775
:10514C0027F90A4B9855FAE628460EF0B7FE0028C8
:10515C0000F0F68001200BB0BDE8F08FBE1203000A
:10516C004B1B0300310903003C3400204C3400205D
:10517C0028460EF067FCEAE70A2F06EB09082BD14C
:10518C00DFF8D4A19AF8003033B3EB7B23BBABEB45
:10519C000909B9F1080F1FD15A4621463046FFF7CD
:1051AC00FCF8C8B998F80290B9F1000F14D198F82E
:1051BC000330E22B10D1211D5A4689B23046FFF73D
:1051CC00E9F800F0D9FD00F0D9FD61490246022052
:1051DC00FFF780FD8AF80090ABEB040292B24146D7
:1051EC003846FCF76EFA0028B4D1002162E6ABEB2E
:1051FC00040292B206EB09013846FDF704FEF2E711
:10520C00ABEB040292B206EB09013846FDF755FDF3
:10521C00E9E7ABEB040292B206EB09013846FDF765
:10522C00DFFDE0E7ABEB040292B206EB0901384676
:10523C00FCF749FAD7E701342B6816F8098058793E
:10524C002B8AA4B24246345D0193069B00933946E7
:10525C002346FCF714FF224641463846FDF72FFD46
:10526C0078E7059B16F80910A3F11600621C43425F
:10527C0092B24341ABEB020B0031009332441FFA64
:10528C008BF318BF01213846FDF71BFDABE7059BDF
:10529C0016F809A04E44112B96F801901BD1122040
:1052AC00FFF704F80020B8F800402A4ECDF804802F
:1052BC00C4F1510292B2631C00923344CDE902A9AD
:1052CC003A462946FDF70CF8B8F800303055013352
:1052DC00A8F8003033E61420FEF7E8FF0120E2E7DF
:1052EC0016F809200134A4B2003206EB0403ABEB30
:1052FC00040418BF0122A4B20021C8B2844201F1F7
:10530C000101FAD8298A00943846FDF7DEFC6AE7D9
:10531C0016F809200134A4B2003206EB0403ABEBFF
:10532C00040418BF0122A4B20021C8B2844201F1C6
:10533C000101FAD8298A00943846FDF7C4FC52E7DB
:10534C00EB7B002B0CBF82218421B3E58421B1E5DA
:10535C00671B03004C3400209422002082B2074BC0
:10536C0042B11A80000C064B0ABF4FF6CE221880B1
:10537C001A8070474BF6EF62F3E700BF741C0020F5
:10538C00761C0020094B1888020448BF80F062008C
:10539C0042001A80064A1388190444BF83F48053D0
:1053AC0083F00B035900118058407047741C002087
:1053BC00761C0020034B1870034B1970034B002212
:1053CC001A70704796220020952200209722002008
:1053DC000C4B13B51B681B681B78672B04D101A8F9
:1053EC0027F0CCF902B010BD0020FEF78BF8044674
:1053FC000120FEF787F801A9ADF80400204627F03C
:10540C008DF9EFE70834002038B519F0DFFE30B124
:10541C000C4A0D490120BDE83840FFF75BBC0B4B33
:10542C000B4C1B680B491B681D7810226C2D18BF88
:10543C0021460123FEF7A0F807490220BDE83840B9
:10544C00FFF748BC7DED02007F1B030008340020F1
:10545C00781C0020881C0020951B03002DE9F047C8
:10546C0007468AB0A0B9FCF735F806462649DFF89E
:10547C00A080DFF8A090DFF8A0A00120FFF72AFCA5
:10548C0000252C46B44205D328460AB0BDE8F08767
:10549C000126EBE769462FB1012026F0A3FA60B391
:1054AC00FE2403E0204628F01FFB10B10134E4B2C7
:1054BC00E8E7224651460120FFF728FC0120FFF7C0
:1054CC00F5FB18B10DF11D00FFF76CFB069A414678
:1054DC000120FFF71BFCBDF8003013F0100F14BFB8
:1054EC0079226E2249460120FFF710FC01350DF19F
:1054FC000300FFF7AFFBEDB2D8E704490120FFF73B
:10550C0005FCFE24DAE700BFF71C03004A1D03006C
:10551C002C1D0300341D0300421D0300F0B51E4971
:10552C001E4D1F4E1F4F89B00120FFF7D3FB69465C
:10553C00002027F0D1FC002410B1204609B0F0BDAA
:10554C00012022462946FFF7E1FB0120FFF7AEFBC5
:10555C0010B16846FFF726FB069A31460120FFF78B
:10556C00D5FBBDF81E2039460120FFF7CFFBBDF857
:10557C001C200D490120FFF7C9FB013402A8FFF7DD
:10558C0069FBE4B209490120FFF7A4FB69462046F8
:10559C0027F0A2FCD0E700BF511D0300421D030001
:1055AC002C1D03008D1D0300941D0300EE11030040
:1055BC0000B58BB06946012026F014FA18B905988D
:1055CC000BB05DF804FB4FF0FF30F9E710B58CB071
:1055DC0002A827F0D3F838B9BDF80830DB0703D49C
:1055EC002F490120FFF776FB02A9032026F0FAF9D8
:1055FC0020B12822FF2102A8FEF720FE079B294A92
:10560C0029490120FFF766FB9DF82430254A2749DC
:10561C000120FFF75FFB234A25490120FFF776FBAA
:10562C000DF10B00FFF716FBFFF7C2FF214A1E49D5
:10563C0003460120FFF74EFB1E4A1F490120FFF7CE
:10564C0049FB0120FFF70AFF1A4A1C490120FFF70A
:10565C0041FB0020FFF702FF0446FBF73BFF22460D
:10566C00034617490120FFF735FB164A1349012061
:10567C00FFF730FBFFF752FF1349144B012898BF7B
:10568C000B461349CDE900030246124B4FF00100C3
:10569C0088BF0B461049FFF71DFB0CB010BD00BFB7
:1056AC003E1C0300761C03007E1C03008D1C0300B3
:1056BC0097220300605503009E1C0300A41C0300EA
:1056CC00AD1C0300C11C0300EE1103002C150300DC
:1056DC003A1C0300C00A0300CF1C030010B50020C5
:1056EC00FDF710FF0446003018BF01201CF068FBCA
:1056FC00054A064B0649002C08BF1A460120BDE896
:10570C001040FFF7E7BA00BF9D1B0300A21B03006C
:10571C00AB1B030008B50020FDF7F4FE044B054954
:10572C00188082B2BDE808400120FFF7D3BA00BF51
:10573C00C8200020EC1B030008B50020FDF7E2FE9A
:10574C00034B18700120FDF7DDFE024B187008BDED
:10575C00862200205A1C002038B5012505704FF612
:10576C00FB75A94298BF6FEA43439DF810408472C1
:10577C0098BF6FEA534303814260064BC07A0821FD
:10578C0003EBC000FEF772FE0420BDE8384009F0C0
:10579C0093B900BFA03400200948037873B9094AB3
:1057AC001946D3720133042B11731170516011819E
:1057BC00917202F11002F4D101230370704700BF03
:1057CC00D82200209822002038B5FFF7E5FF094DBC
:1057DC0000240FF01EFD204400012B5C2BB90FF0B0
:1057EC0018FD204405EB001038BD0134042CF0D119
:1057FC000020F9E79822002030B5054685B0007BE3
:10580C00FEF70AFE174BE87A002403EBC0002C705D
:10581C00FEF722FE0FF0FDFC134B00B203EB00135E
:10582C00204602019A5C22B901300428F9D109F012
:10583C0063F9696891B12B8943F38132C3F30E0389
:10584C00ADF806304FF6FF7302F00202ADF80830E7
:10585C0000238DF80420039301A88847FEF7E3FD8D
:10586C0005B030BDA03400209822002038B5044685
:10587C00436808460D469847B4F90830002B02DB04
:10588C002B78042B06D1002363602046BDE83840FA
:10589C00FFF7B2BF38BD2DE9F34104460D4617465C
:1058AC009846FFF791FF0646D8B14FF6FB724FF6BC
:1058BC00FD73944288BF1C46294643463A4620460F
:1058CC0000F0A6F9054602F0D3F835B9009006238E
:1058DC00089A21463046FFF73FFF284602B0BDE844
:1058EC00F0817025F9E7F7B506460C461746FFF729
:1058FC006BFF054698B121464FF48A52304602F0B0
:10590C00D7F8044602F0B4F834B9009004233A46B0
:10591C0031462846FFF720FF204603B0F0BD702427
:10592C00FAE7F7B506460F46FFF74EFF054698B166
:10593C00002240231146304621F091FC044621F010
:10594C0073FD34B9009001233A4631462846FFF7DF
:10595C0003FF204603B0F0BD7024FAE773B504468C
:10596C000E46FFF731FF054698B10022204611463E
:10597C0021F020FD044621F057FD3CB90090234650
:10598C0032464FF6FC712846FFF7E6FE204602B081
:10599C0070BD7024FAE7000038B500240470054689
:1059AC00FFF7FAFE0D4B9D420BD003F10802954216
:1059BC000ED003F1100295420CD018339D420BD13E
:1059CC000324074B03EB0410BDE83840FFF714BF6A
:1059DC000124F6E70224F4E738BD00BFA034002010
:1059EC00982200202DE9F0479CB014461D4692F8F1
:1059FC0000A00F460FF00DFC8146FFF7CDFE83484B
:105A0C000A22102313FB0923034400228046197831
:105A1C00514506D113F80A6C1EB1398839B10026EC
:105A2C008EE00132042A03F11003F0D1F7E7914420
:105A3C007B8808EB09173A8942F400408342EED187
:105A4C00617800297CD1A3F50043062BE7D801A18E
:105A5C0051F823F09B5B00009B5B00002B5A00006D
:105A6C002B5A00007D5A0000D95B0000555B0000EA
:105A7C00E179A379E07A8DF80C0003EB0123ADF802
:105A8C001C30617A237A03EB0123811D0D3DADF8A7
:105A9C001E3014F811C063798DF8203015F0010513
:105AAC008DF814C04CD109AB049304F10C08AE462C
:105ABC005FFA8EF9814508F102080AD218F801AC98
:105ACC0018F8029C09EB0A2923F81E900EF1010E1E
:105ADC00EEE74900013103EB400301F0FF010693AF
:105AEC005FFA85FE0EEB0003E645DBB211D20DF139
:105AFC00700E0EEB430304EB010E01359EF8018092
:105B0C0014F801E002310EEB082E23F84CECC9B26C
:105B1C00E6E712F4004F0CBF01230323E1788DF864
:105B2C000030A37803EB0123ADF80430C2F30E026E
:105B3C0003ABADF80220029369463846FFF796FE98
:105B4C0030461CB0BDE8F087042DF9D9053D23790A
:105B5C00ADB29D42F4D1002BF2D0A378E1788DF850
:105B6C000C5012F4004F03EB012304F105040CBF9D
:105B7C0001200320C2F30E02ADF8283003AB0494CD
:105B8C008DF82400ADF826200B9309A9D5E70B2D31
:105B9C00D6D903AD08EB09180822A11C2846FEF73C
:105BAC00F1FAB8F80830E17A0B9513F4004F0CBFFA
:105BBC00042203228DF82420A27AC3F30E0302EBF5
:105BCC000122ADF82820ADF82630DEE7042DB7D938
:105BDC00E178A37803EB01232179ADF828304B1D34
:105BEC00DBB2AB42ACD112F4004F0CBF0123032348
:105BFC008DF82430C2F30E0203AB0534ADF8262029
:105C0C000B9304948DF80C10BFE700BF9822002072
:105C1C002DE9F341054601200E4690461F4619F02A
